:10000000B0C2CAC2DEC4C8C2C7C2C6C2C5C2C4C2A8
:10001000C3C2C2C2C1C2C0C2BFC2BEC2BDC2DB0473
:10002000002041A5A4A3A2A1A09B9A999897969578
:1000300094939291908B8A8988878677C5CCC5CC1A
:10004000D5E0DB4B9C4597429899DADCDADCD5E0C9
:10005000DB4B9C4597429899DADCDADC42A0A0A001
:10006000A065E0A0A0A0A0E0ECECA0A0A0A0E0A073
:10007000A0A0A0E0ECEC4B85D0CBCC87CA578ACAB5
:10008000428586C7C44B85D0CBCC87CA578ACA4223
:100090008586C7C495959595D594949494D4939357
:1000A0009393D3549C9C4295959595D59494949410
:1000B000D493939393D3549C9C4185868788898A53
:1000C0008B909192939495969798999A9BA0A1A2C0
:1000D000A3A4002041999897969594939291902883
:1000E000BBBAB9B8B7B6B5B4B3B2B1B0ABAA65E9EB
:1000F000EBE9EBE9EBE9EBE9EBE9EBE9EBE9EB2029
:100100004289908990899089908990899089908975
:100110009087928B9287928B9287928B9287928B09
:100120009261E7D5E1D1DAD7E5D1DAC7D7C5E1C722
:10013000D5C5DAD7DAC7D1D5D7DAE6D1DAC6D1DA7A
:10014000E1C6D1DAC1C6E1C6D1DAC1C6D1D6DAE19B
:10015000DAC6899089908990899089908990899050
:10016000899087928B9287928B9287928B928792BB
:100170008B92E7D5E1D1DAD7E5D1DAC7D7C5E1C7A8
:10018000D5C5DAD7DAC7D1D5D7DAE6D1DAC6D1DA2A
:10019000E1C6D1DAC1C6E1C6DAD1C1C68A91969A62
:1001A0009494949465D494949494D4DCDC9494942E
:1001B00094D494949494D4DCDC28A8B0A8B0A8B0CB
:1001C000A8B0A8B0A8B0A8B0A8B0AAB1AAB1AAB166
:1001D000AAB1AAB1AAB1AAB1AAB1A8B0A8B0A8B050
:1001E000A8B0A8B0A8B0A8B0A8B0AAB1AAB1AAB146
:1001F000AAB1AAB1AAB1AAB1AAB12088909090D010
:1002000090909090D090909090D08080C08080C04E
:100210008080C0808088909090D090909090D09076
:10022000909090D08080C08080C08080C0808028E6
:1002300041A9AAABB0B1B2B3B4B5B6B7B8B9BABBFD
:1002400020909192939495969798010020578C8CCA
:100250002845A6A8A6A8A6A8A6A8A6A8A6A8A6A80F
:10026000A6A8A562E5E5A5E5E5A5E5E5A5E5E5A57D
:10027000E5E5A5E5E5A5E5E5A5E5E561E520D1C769
:10028000C5D7D1E1C5D7C1D128EAD5EA20D1C1D798
:10029000C5D728EAF5FCEA20D728E5EA20D128EAE4
:1002A000F620D6DA28EA20D1D628EAF1FCEA20D6D0
:1002B000C628EAF1E6EA20D6DAD628EAA562E5E51C
:1002C000A5E5E5A5E5E5A5E5E5A5E5E5A5E5E5A55E
:1002D000E5E5A5E5E561E520D1C7C5D7D1E1C5D7FD
:1002E000C1D128EAD5EA20D1C1D7C5D728EAF5FC83
:1002F000EA20D728E5EA20D128EAF620D6DA28EA4B
:1003000020D1D628EAF1FCEA20D6C628EAF16220FC
:10031000C6CAD1D628FAFAFAFABAFAFAFAFABAF04A
:10032000E6E4E1FAFAFAFABAFAFAFAFABAF0E6E424
:10033000E1A5E5E5A5E5E5A5E5E5A5E5E5A5E5E5B1
:10034000A5E5E5A5E5E5A5E5E5A5E5E5A5E5E5A5DD
:10035000E5E5A5E5E5A5E5E5A5E5E5A5E5E5A5E58D
:10036000E5E5F8F8F8B8F8F8F8F8B8F8F8F8F8B8F3
:10037000E0E0A0E0E0A0E0E0A0E0E0E5F8F8F8B818
:10038000F8F8F8F8B8F8F8F8F8B8E0E0A0E0E0A07D
:10039000E0E0A0E0E06BE300004184002340999C92
:1003A00063D99B9C999C969C61D9DC999C63D99B51
:1003B0009C999C969C61D9DC929C929C929C949C6A
:1003C00064D69C929CD69C999C67D9929C929C9254
:1003D0009C949CD6929C929C929C949CD6949C9427
:1003E0009C949C929C61D4DCD6DCD9DCD7DCD6DC36
:1003F000D4DC002A41AC40A962ECA9ECA9A961ECCB
:10040000A962ECA9ECA9ECA9A961ECA962ECABEC9E
:10041000ABECABAB61ECAB62ECABECABECABAB61C4
:10042000ECAB62ECABECABECABAB61ECAB62ECAB72
:10043000ECABECABAB61ECAB62ECA9ECA9ECA9A921
:1004400061ECA962ECA9ECA9ECA9A941ACA9002A2C
:1004500041AC40A662ECA6ECA6A661ECA662ECA6B6
:10046000ECA6ECA6A661ECA662ECA6ECA6ECA6A611
:1004700061ECA662ECA6ECA6ECA6A661ECA662EC8A
:10048000A7ECA7ECA7A761ECA762ECA7ECA7ECA7E9
:10049000A761ECA762ECA4ECA4ECA4A461ECA462B8
:1004A000ECA4ECA4ECA4A441ACA4002B43A299A21C
:1004B00099A29962E260D961E2E19B969B969B9634
:1004C00062DB60D661DBD9979297A29792D7D2D799
:1004D000DB999499949994E1DB990100001E000046
:1004E0002040979561D497A0DB97A2E063E4A09B9E
:1004F00061D9A5A2E0DB65E00020408C8C8084847B
:1005000084828561C5848787878487878785898971
:10051000898790879290949492D00020408C8C8C04
:100520008787878C8B61CB9C9090909C9090909CBF
:100530009292929C949C9594979795D40100001464
:1005400000002040969289929462D99496948943AF
:10055000920020418C8662D160C489894386010063
:10056000000011241FBECFE5D2E0DEBFCDBF10E0FA
:10057000A0E6B0E0E2E6FCE002C005900D92A837EC
:10058000B107D9F720E0A8E7B0E001C01D92A23A78
:10059000B207E1F717D263C333CD08B601FEFDCF32
:1005A00088B7826088BF0895EF92FF920F931F93E0
:1005B000CF93DF93C0E0D0E083E3E82EF12CC701B6
:1005C0000C2E02C0959587950A94E2F780FF14C01F
:1005D000C19A01EA17E0E1DF015011090115110587
:1005E000D1F72196C830D10551F7DF91CF911F91F6
:1005F0000F91FF90EF900895C198EBCFCF93B09BF0
:1006000002C0CF910895CFEFC8DFC150C111FCCF18
:10061000F6CFCF93CBB51BBC80E28BBF81E085BB0F
:10062000789485B7877E806185BF85B7806285BFF6
:10063000889585B78F7D85BFF8941BBE15BADEDF20
:10064000CBBDCF9108952F923F924F925F926F92C0
:100650007F928F929F92AF92BF92CF92DF92EF9252
:10066000FF920F931F93CF93DF93CDB7DEB76697BB
:100670000FB6F894DEBF0FBECDBFFC0184918F0191
:100680000E5F1F4F3196E491582E4E2E7E0129E0C9
:10069000E20EF11C88E0D7011D928A95E9F7C201AC
:1006A00073E0969587957A95E1F79C0140E050E0DC
:1006B000298B3A8B4B8B5C8BCA01B90142D29B01CF
:1006C000AC0160EC71EE84EE9AE4A7D1698B7A8B71
:1006D0008B8B9C8B69897A898B899C8906D23B019B
:1006E00080E09E2CDF2C0F5F1F4FF8013197E491C3
:1006F000E111E5C0F8019491992371F091E0980F10
:10070000E82FF0E0EE0FFF1FE756FF4F1183008345
:10071000833009F0D5C084E08093A1006091A100EE
:10072000062F10E049E950E021E930E089E890E047
:10073000ADE8B0E07A2FEDE8F0E07E1B761708F424
:10074000C1C0EE24E394F12C01501109C090A10026
:100750008C2D90E00817190708F07BC0D801A75727
:10076000BF4F8C91882309F470C0980123573F4FE5
:10077000F90180819FEF980F9083811166C0C801B5
:10078000880F991FA80143585F4F5A8B498BAC01C2
:100790004F565F4FBC90EB2DE295E695E695E370E2
:1007A000B7FE9FC0E0FB222420F8312CF101E82B9A
:1007B000F92BEF57FF4F4081F90140832B2D2F700C
:1007C000F801E358FF4FA08040E050E02C30C8F41F
:1007D000E22FF0E0EE0FFF1FE05AFF4F4081518102
:1007E0002B2D2295237030E061E070E0A3FC02C065
:1007F00064E070E0260F371F02C0569547952A9592
:10080000E2F7E1E0F0E0EC0FFD1FE80FF91F518780
:10081000408711821082A2FAAA24A0F82FEF30E0BC
:1008200002C035952795AA94E2F7F801E758FF4FE3
:1008300020838F569F4FFC01208131812F5F3F4FD6
:1008400031832083F90124912C930115110509F4BA
:100850008301FE01319669E770E0998ADA8A4DE7F3
:1008600050E0812C842F2DE730E0821B8C1508F49A
:100870007CC0809278008BBC31E0E31AF108809153
:10088000A10090E0E816F906B0F4F701E358FF4F35
:10089000808180FD09C0F701E758FF4F8081982FC4
:1008A00092959F70891B8083E114F10421F480E804
:1008B000E82EFF24F394B09B3EC06FDE45CF982F07
:1008C000892F11CFFA01E190F190AF01F901E19286
:1008D000F1929F011D92F701E490FC01E192CF019A
:1008E00029CFFB2DF295F695F770E130B9F4F17050
:1008F000FD8B1E8AED89FE89E82BF92BEF57FF4F00
:100900006B2D6F716083FA01608171816F5F7F4F22
:1009100071836083FB0164916C933CCFF13031F4BF
:100920006B2D6F71E989FA896083EDCFF1E0BF1219
:10093000EACF42FCF3CE1BBC66960FB6F894DEBF3E
:100940000FBECDBFDF91CF911F910F91FF90EF9020
:10095000DF90CF90BF90AF909F908F907F906F90DF
:100960005F904F903F902F9049CE5F012081318161
:100970002F5F3F4F31832083A989BA898D919D9143
:10098000BA8BA98B2817390711F41182108232967D
:10099000DA012D91AD01269521702F5F02C0969549
:1009A00087952A95E2F7D5012D913C9128173907B3
:1009B00028F4DB018C9186958695880E6F5F7F4FBA
:1009C00051CF189583E08ABD8AE083BF82E489BD58
:1009D00081E080BF90E69CBD97E097BD1BBC9FEF78
:1009E0009DBD9EE197BB88BB16B819BE12BE1FBC49
:1009F000DBDD0FDE8FE395E026DED6DD0ADE8DED52
:100A000094E021DED1DD05DE89E993E01CDECCDD5A
:100A100000DE8EE190E017DEEBCF0CD0E6C0DED03A
:100A200040F0D5D030F021F45F3F19F0C7C051112C
:100A300010C1CAC0EBD098F39923C9F35523B1F381
:100A4000951B550BBB27AA2762177307840738F03D
:100A50009F5F5F4F220F331F441FAA1FA9F333D09C
:100A60000E2E3AF0E0E830D091505040E695001C50
:100A7000CAF729D0FE2F27D0660F771F881FBB1F0C
:100A8000261737074807AB07B0E809F0BB0B802DE6
:100A9000BF01FF2793585F4F2AF09E3F510568F032
:100AA0008DC0D7C05F3FECF3983EDCF38695779519
:100AB0006795B795F7959F5FC9F7880F911D969534
:100AC000879597F90895E1E0660F771F881FBB1F90
:100AD000621773078407BA0720F0621B730B840B3D
:100AE000BA0BEE1F88F7E095089598D088F09F57CD
:100AF00090F0B92F9927B751A0F0D1F0660F771F6A
:100B0000881F991F1AF0BA95C9F712C0B13081F049
:100B10009FD0B1E008959CC0672F782F8827B85FD9
:100B200039F0B93FCCF3869577956795B395D9F7AA
:100B30003EF490958095709561957F4F8F4F9F4FB4
:100B40000895E89409C097FB3EF4909580957095C0
:100B500061957F4F8F4F9F4F9923A9F0F92F96E909
:100B6000BB279395F695879577956795B795F1117E
:100B7000F8CFFAF4BB0F11F460FF1BC06F5F7F4F1B
:100B80008F4F9F4F16C0882311F096E911C077232D
:100B900021F09EE8872F762F05C0662371F096E836
:100BA000862F70E060E02AF09A95660F771F881F05
:100BB000DAF7880F9695879597F9089597F99F67C3
:100BC00080E870E060E008959FEF80EC08950024D5
:100BD0000A941616170618060906089500240A94A2
:100BE00012161306140605060895092E0394000C28
:100BF00011F4882352F0BB0F40F4BF2B11F460FFB7
:100C000004C06F5F7F4F8F4F9F4F089557FD9058DF
:100C1000440F551F59F05F3F71F04795880F97FBC0
:100C2000991F61F09F3F79F087950895121613067A
:100C30001406551FF2CF4695F1DF08C016161706A9
:100C40001806991FF1CF86957105610508940895DE
:100C5000E894BB2766277727CB0197F90895F89486
:020C6000FFCFC4
:100C620077070C07A7064706ED0598054705FC041C
:080C7200B40470043104F40322
:00000001FF
