:10000000BBC8D5C8E9CAD3C8D2C8D1C8D0C8CFC820
:10001000CEC8CDC8CCC8CBC8CAC8C9C8C8C8438117
:100020000020408B8C8C9461D4D2D2D4D4DCD4D731
:10003000DCDBD9DCDCDCD4DCD4D2D4DCD4D2D4D745
:10004000D7D2CBDCD4DCDBDCD4D2D2D4D4DCD4D752
:10005000D7D9DBDCDCDCD49C92D49C92D4D7D9DB1E
:10006000D99C97D4D2D4DCDCDCE2DCDCD4D2D4431F
:1000700094D2D494D2D4D4D7E2DCDCD4D2D488D2F3
:10008000D494D2D4D4D7E2DCDCD4D2D494D2D494D5
:10009000D2D4D4D7E2DCDCD4D2D494D2D4D7D9D73A
:1000A000DCDCDCCBCCCCD4D2DCDCC9CBCBCBC9C741
:1000B000CCCCCCCCCCCCCCD2DCDCC9CBCBCBD4D252
:1000C000DCDCDCCBCCCBD4D2DCDCDCCBCBCBC9C70F
:1000D000CCCCCCCCCCCCCCCCCCC9CCCBCBCBC9C76E
:1000E000CCCCCCCBCCCCD4D2DCDCC9CBCBCBC9C731
:1000F000CCCCCCCCCCCCCCD2DCDCC9CBCBCBD4D212
:10010000DCDCDCCBCCCBD4D2DCDCD2D4D4D4D7DB9B
:10011000DCDCDCD9D7D9D7D9D7D9D7D4D7D4D2D466
:10012000DC93408B8C8C94D4D2D2D4D4DCD4D7DC66
:10013000DBD9DCDCDCD4DCD4D2D4DCD4D2D4D7D749
:10014000D2CBDCD4DCDBDCD4D2D2D4D4DCD4D7D751
:10015000D9DBDCDCDCD49C92D49C92D4D7D9DBD91B
:100160009C97D4D2D4DCDCDC002A40ABACAC44ABF2
:1001700041A9A963E9B2B2F2B2B2F240ABACAC446D
:10018000AB41A9A9E9B2B2F2B2B2F240ABACAC4415
:10019000AB41A9A9E9B2B2F2B2B2F240ABACAC4405
:1001A000AB41A9A9E9B2B2F2B2B2F25FACACACAC6D
:1001B000ACACACAC40ABACAC44AB41A9A9E9B2B27D
:1001C000F2B2B2F240ABACAC44AB41A9A9E9B2B2D5
:1001D000F2B2B2F240ABACAC44AB41A9A9E9B2B2C5
:1001E000F2B2B2F2ABABEBA9A9E9B2B2F2F2FC40C7
:1001F000ABACAC44AB41A9A9E9B2B2F2B2B2F240A5
:10020000ABACAC44AB41A9A9E9B2B2F2B2B2F24094
:10021000ABACAC44AB41A9A9E9B2B2F2B2B2F24084
:10022000ABACAC44AB41A9A9E9B2B2F2B2B2F200B4
:100230002A4190A063D08B8BCB9494D492A292A2AB
:1002400090A0D08B8BCB9494D492A292A290A0D069
:100250008B8BCB9494D492A292A290A0D08B8BCB78
:100260009494D49797D790A0D08B8BCB9494D4921E
:10027000A292A290A0D08B8BCB9494D492A292A263
:1002800090A0D08B8BCB9494D492A292A290A0D029
:100290008B8BCB9494D49797D7909C90A092A2925A
:1002A000A294A494A492A292A290A090A092A292AE
:1002B000A294A494A492A292A2909C90A092A292A2
:1002C000A294A494A492A292A290A090A092A2928E
:1002D000A294A494A492A292A2909C90A092A29282
:1002E000A294A494A492A292A290A090A092A2926E
:1002F000A294A494A492A292A2909C90A08B9B8B77
:100300009B94A494A492A292A290A090A08B9B8B69
:100310009B94A494A492A292A290A0D08B8BCB94F5
:1003200094D492A292A290A0D08B8BCB9494D4928E
:10033000A292A290A0D08B8BCB9494D492A292A2A2
:1003400090A0D08B8BCB9494D49797D7002643ACB6
:10035000A0ACA0ACA061ECE0A0ACA0ACA0ACA0ECC8
:10036000E0A0ACA0ACA0ACA0ECE0A0ACA0ACA0AC79
:10037000A0ECE0A0ECE0E0EC42A0A0E0ECE0E0ECDF
:10038000A0A0E0ECE0E0ECA0A0E0ECE0E0ECA0A0BD
:10039000E0ECE0E0ECA0A0E0ECE0E0ECA0A0E0EC21
:1003A000E0E0ECA0A0E0ECE0E0ECA0A0E05FACAC12
:1003B000ACACACACACAC43ACA0ACA0ACA0ECE0A0A2
:1003C000ACA0ACA0ACA0ECE0A0ACA0ACA0ACA0EC0D
:1003D000E0A0ACA0ACA0ACA0ECE0A0010000DB0170
:1003E000002041A5A4A3A2A1A09B9A9998979695B5
:1003F00094939291908B8A8988878677C5CCC5CC57
:10040000D5E0DB4B9C4597429899DADCDADCD5E005
:10041000DB4B9C4597429899DADCDADC42A0A0A03D
:10042000A065E0A0A0A0A0E0ECECA0A0A0A0E0A0AF
:10043000A0A0A0E0ECEC4B85D0CBCC87CA578ACAF1
:10044000428586C7C44B85D0CBCC87CA578ACA425F
:100450008586C7C495959595D594949494D4939393
:100460009393D3549C9C4295959595D5949494944C
:10047000D493939393D3549C9C4185868788898A8F
:100480008B909192939495969798999A9BA0A1A2FC
:10049000A3A40020419998979695949392919028BF
:1004A000BBBAB9B8B7B6B5B4B3B2B1B0ABAA65E927
:1004B000EBE9EBE9EBE9EBE9EBE9EBE9EBE9EB2065
:1004C00042899089908990899089908990899089B2
:1004D0009087928B9287928B9287928B9287928B46
:1004E0009261E7D5E1D1DAD7E5D1DAC7D7C5E1C75F
:1004F000D5C5DAD7DAC7D1D5D7DAE6D1DAC6D1DAB7
:10050000E1C6D1DAC1C6E1C6D1DAC1C6D1D6DAE1D7
:10051000DAC689908990899089908990899089908C
:10052000899087928B9287928B9287928B928792F7
:100530008B92E7D5E1D1DAD7E5D1DAC7D7C5E1C7E4
:10054000D5C5DAD7DAC7D1D5D7DAE6D1DAC6D1DA66
:10055000E1C6D1DAC1C6E1C6DAD1C1C68A91969A9E
:100560009494949465D494949494D4DCDC9494946A
:1005700094D494949494D4DCDC28A8B0A8B0A8B007
:10058000A8B0A8B0A8B0A8B0A8B0AAB1AAB1AAB1A2
:10059000AAB1AAB1AAB1AAB1AAB1A8B0A8B0A8B08C
:1005A000A8B0A8B0A8B0A8B0A8B0AAB1AAB1AAB182
:1005B000AAB1AAB1AAB1AAB1AAB12088909090D04C
:1005C00090909090D090909090D08080C08080C08B
:1005D0008080C0808088909090D090909090D090B3
:1005E000909090D08080C08080C08080C080802823
:1005F00041A9AAABB0B1B2B3B4B5B6B7B8B9BABB3A
:1006000020909192939495969798010020578C8C06
:100610002845A6A8A6A8A6A8A6A8A6A8A6A8A6A84B
:10062000A6A8A562E5E5A5E5E5A5E5E5A5E5E5A5B9
:10063000E5E5A5E5E5A5E5E5A5E5E561E520D1C7A5
:10064000C5D7D1E1C5D7C1D128EAD5EA20D1C1D7D4
:10065000C5D728EAF5FCEA20D728E5EA20D128EA20
:10066000F620D6DA28EA20D1D628EAF1FCEA20D60C
:10067000C628EAF1E6EA20D6DAD628EAA562E5E558
:10068000A5E5E5A5E5E5A5E5E5A5E5E5A5E5E5A59A
:10069000E5E5A5E5E561E520D1C7C5D7D1E1C5D739
:1006A000C1D128EAD5EA20D1C1D7C5D728EAF5FCBF
:1006B000EA20D728E5EA20D128EAF620D6DA28EA87
:1006C00020D1D628EAF1FCEA20D6C628EAF1622039
:1006D000C6CAD1D628FAFAFAFABAFAFAFAFABAF087
:1006E000E6E4E1FAFAFAFABAFAFAFAFABAF0E6E461
:1006F000E1A5E5E5A5E5E5A5E5E5A5E5E5A5E5E5EE
:10070000A5E5E5A5E5E5A5E5E5A5E5E5A5E5E5A519
:10071000E5E5A5E5E5A5E5E5A5E5E5A5E5E5A5E5C9
:10072000E5E5F8F8F8B8F8F8F8F8B8F8F8F8F8B82F
:10073000E0E0A0E0E0A0E0E0A0E0E0E5F8F8F8B854
:10074000F8F8F8F8B8F8F8F8F8B8E0E0A0E0E0A0B9
:10075000E0E0A0E0E06BE30000B400002247976314
:10076000D7E0D7E0E2D7E2A4E4A5E4A2E09BD96B0E
:10077000D79763D7E0D7E0E2D7E2A4E4A5E4A2DB11
:10078000E0D9DBE0ECEC459294959697999BA04BD1
:10079000A2D7D7D757974B99D7D5D4929997D5D475
:1007A000D2909795D5D4D245908B898B4B90D0D44D
:1007B000D7A0AC949777E09799D767DC4390D4970C
:1007C0004BA0DB439957979CD94399D94B9943A0A8
:1007D000DB9977D7DC67D997D9974B929457909C40
:1007E000D84398D87BD84B9747977BD76BD5D5D52F
:1007F00047925B94579CD0E0DB67D75B99DC4399C9
:10080000DBA04BA2A09B9957979CE0439BE097D419
:100810006BE05B9BDC67D743974B999C9B9C57A0F5
:10082000ACE0439BE0974B94E07BDB9C67D763D7BE
:10083000999C9B9C65E0E0DAD8D6D4D3D1D0D0CABD
:10084000C8C6C4C3C18063D0D4D7A0AC00284BA015
:10085000ACA0ACA0A0A0ACA0ACA0ACA0A0A0AC658B
:10086000E2E4E5E6E7E9EBF0B2A7A7ACA5A5A7A50A
:10087000A4A49999A2A2A7A7A0A0A0ACA0A0A0A060
:10088000A2A29797A09B9999A2A29797A5A5A5A583
:10089000A4A49999A2A29797A0A0A0ACA5A5A5A54C
:1008A000A4A4A4A4A2A2A7A7A0A0A09B9999A4A431
:1008B000A5A5A5A4A2A2A6A6A7A5A4A2A0A0A0A003
:1008C000A4A4A4ACA5ACA7ACA097A063D7D9DBA087
:1008D000A0A067E063E2A49BA4ACA5ACA7AC77E0C2
:1008E000E0E0E0A097A0AC002A5FBCBCBCBCBCBCF4
:1008F000BCBCBC67FC43B0FCB0ECABECABECABEC11
:10090000ABECA9ECA9ECA9ECA9ECABECABECA7EC3B
:10091000A74BA0ACEC43A7ECA7ECA7ECA7ECA9EC89
:10092000A9ECABECA7ECA7ECA7ECA9ECA9ECA9EC23
:10093000A9ECABECABECB0FCB0FCB0FCB0ECABECBD
:10094000A7ECA9ECA4ECA5ECA5ECA7ECA7ECA7EC14
:10095000A74BA0ACEC43B0FCB0FCB0FCB0FCB0FCCE
:10096000B0FCB0ECAAECA9ECA9ECABECA7ECA7ECC2
:10097000A7ECA7ECA8ECA9ECA9ECABECABFCB0FCA9
:10098000B0FCB0FCB0FCB2FCB2FCB2FCB2ECABEC24
:10099000ABECA9ECA8ECA7ECA7ECA7ECA7ECABECB4
:1009A000AB4BABACB0BCB2BCEC43A7ECA7ECA74BD9
:1009B000ACEC43A7ECA7ECA74BACEC43ABECAB4BDC
:1009C000ABACB0BCB2BC22848C848C878C8A8C90FB
:1009D00087808C01002457BABA6BFAFAFAFCBABACB
:1009E000FAFAFAFC7FDCDCDCDCDCDCDCDCDCDCDC2A
:1009F00073DC63D7D9DBA09C9CD7DCD7D7D6D49542
:100A00009C6BDCD4D5D7999C479C63D094D7A061CC
:100A1000DA60E0DA99439753986FE063D8E0D897AB
:100A20004BA0D7D4D5D777D5974397999B47A0614B
:100A3000DB60E0DB9963D79561D460D5D49263D055
:100A400077DCDCDCDCDCDC9761D760D9D79561D55D
:100A500060D7D59461D460D5D49261D260D4D27F6E
:100A6000D0DC000054000022418C60D7D7979794C7
:100A7000944395419CD7D7979791914392419CD7A6
:100A8000D747979287439C4197D7D7949C979C9739
:100A90009C9CD7D7959C979C979C9CD7D7949C97C8
:100AA0009C9B9C999C97969594929C9CD7D7949C40
:100AB000979C979C9CD7D7929C9B9C9B9C9CD9D99C
:100AC000999C999CA2ACA29C63D760D7D8D9DA9B99
:100AD000979997949C979C94979C97959C979C9595
:100AE000979C97949C979C9B9C999C979695949285
:100AF0009C9CD7D7949C979C979C9CD7D7959C9966
:100B00009C999CA0ACA4AC63ECA2ACECA0409798E0
:100B1000999A419BA08CC00022478C41919163D24D
:100B2000DCDC8A8ACBCC8C67D6D09CD763DC2AAC41
:100B3000A7ACA7ACA7ACA7ACA7ACA7ACA7ACA7AC1D
:100B4000A7ACA7ACA7ACA7ACA7ACA7ACA7ACA7AC0D
:100B5000A7ACA7ACA7ACA7ACABACABACABACABACED
:100B6000A9ACA9ACA9ACA9E7ECECECACA7ACA7ACE0
:100B7000A7ACA7ACA7ACA7ACA7ACA7ACA7ACA7ACDD
:100B8000A7ACA7ACA7ACA7ACA7ACA7ACA7ACA7ACCD
:100B9000A7ACA7ACA9ACA9ACA9ACA9ACA7ACA7ACB5
:100BA000A7ACA7A7ACECB0BCE00022538C8C479557
:100BB0008B63CC872A41ACA4ACA4ACA4ACA4ACA5F8
:100BC000ACA5ACA5ACA5ACA4ACA4ACA4ACA4ACA5A1
:100BD000ACA5ACA5ACA5ACA4ACA4ACA4ACA4ACA78F
:100BE000ACA7ACA7ACA7ACA6ACA6ACA6ACA66FEC69
:100BF000ACA4ACA4ACA4ACA4ACA5ACA5ACA5ACA571
:100C0000ACA4ACA4ACA4ACA4ACA5ACA5ACA5ACA560
:100C1000ACA4ACA4ACA4ACA4ACA5ACA5ACA5ACA550
:100C2000ACA4ACA2ACA5ACA5A4AC63ECECD0010028
:100C300022548C8C67D4C9418CCC2A43A0979097BE
:100C400092979297A097909792979297A097909744
:100C50009297929799929692979CDCA097A0A097D2
:100C6000929797A097A0A097929797A097A0A095EA
:100C7000909595A097929741A000004101002241D4
:100C80008B9063D2DBD79997D7D6D6898BD0D9D61C
:100C90009796D4D2D28B90D29799DB9997D4999B7F
:100CA000E09B99D2E0DBD967D7DC65D79763DBD7C8
:100CB00065D99967D965D99963E0D965DB9B67DB0D
:100CC00065DB9B63E2DB65E0A063E09B994792965E
:100CD00097DC002E438C41ACABACABACABACABBC4B
:100CE000B0BCB0BCB0BCB0BCB0BCB0BCB0BCB0ACB4
:100CF000ABACABACABACABACABACABBCB2BCB2BCFE
:100D0000B4BCB4BCB4BCB4BCB2BCB2BCB0BCB0AC7F
:100D1000ABACABABACACB0ACABACABACABACABBC06
:100D2000B0BCB0BCB0BCB0BCB0BCB0BCB0BCB0AC73
:100D3000ABACABACABACABACABACABBCB2BCB2BCBD
:100D4000B4BCB4BCB4BCB4BCB2BCB2BCB0BCB0AC3F
:100D5000ABACABABAC002C438C41ACA7ACA7ACA705
:100D6000ACA7ACA9ACA9ACA9ACA9ACA9ACA9ACA9DD
:100D7000ACA9ACA7ACA7ACA7ACA7ACA7ACA7ACABD5
:100D8000ACABBCB0BCB0BCB1BCB1BCB0BCB0ACA92D
:100D9000ACA9ACA7ACA7A7ACACA9ACA7ACA7ACA7B7
:100DA000ACA7ACA9ACA9ACA9ACA9ACA9ACA9ACA99D
:100DB000ACA9ACA7ACA7ACA7ACA7ACA7ACA7ACAB95
:100DC000ACABBCB0BCB0BCB1BCB1BCB0BCB0ACA9ED
:100DD000ACA9ACA7ACA7A7AC0028438C979297927C
:100DE00099929992999299929792979297979B9BA1
:100DF000A0A0A1A1A292969997929792979297926A
:100E000099929992999299929792979297979B9B80
:100E1000A0A0A1A1A29296999792970100004601E5
:100E2000002061D6D84092D38B9291CBCBD1D29275
:100E3000918B91939698939691938B918BD3D6980F
:100E4000939691938B929392918B91D28B9193964F
:100E50009192918BD1CBD1D6D892D38B9291CBCB8F
:100E6000D1D292918B91939698939691938B918BEB
:100E7000D3D698939691938B929392918B91D28B98
:100E80009193969192918BD1CBCBCB8688CB868850
:100E90008B91938B94939496CBCB86888B869493EB
:100EA000918B86838486CB8688CB86888B8B919327
:100EB0008B868886CB8B8A8B86888B94939496CBF3
:100EC000CACB8688CB86888B91938B94939496CB50
:100ED000CB86888B869493918B86838486CB8688F9
:100EE000CB86888B8B91938B868886CB8B8A8B86DF
:100EF000888B94939496CBD1002861E4E4E6E6E3F2
:100F0000E3E8E8E1E1E6E6DBDB409BA2A19BE4E469
:100F1000E6E6E3E3E8E8E1E1E6E6DBDB9BA1A2A3AA
:100F2000E4E4E6E6E3E3E8E8E1E1E6E6DBDB9BA216
:100F3000A19BE4E4E6E6E3E3E8E8E1E1E6E6DBDB07
:100F40009BA1A2A3E4E4E6E6E3E3E8E8E1E1E6E668
:100F5000DBDB9BA2A19BE4E4E6E6E3E3E8E8E1E176
:100F6000E6E6DBDB9BA1A2A3E4E4E6E6E3E3E8E854
:100F7000E1E1E6E6DBDB9BA2A19BE4E4E6E6E3E35A
:100F8000E8E8E1E1E6E6DBDB9BA1A2A3010000418A
:100F900081002340999C63D99B9C999C969C61D924
:100FA000DC999C63D99B9C999C969C61D9DC929C12
:100FB000929C929C949C64D69C929CD69C999C6793
:100FC000D9929C929C929C949CD6929C929C929C2E
:100FD000949CD6949C949C949C929C61D4DCD6DC8A
:100FE000D9DCD7DCD6DCD4DC002A41AC40A962ECE9
:100FF000A9ECA9A961ECA962ECA9ECA9ECA9A961E9
:10100000ECA962ECABECABECABAB61ECAB62ECAB88
:10101000ECABECABAB61ECAB62ECABECABECABAB2D
:1010200061ECAB62ECABECABECABAB61ECAB62ECB0
:10103000A9ECA9ECA9A961ECA962ECA9ECA9ECA91D
:10104000A941ACA9002A41AC40A662ECA6ECA6A638
:1010500061ECA662ECA6ECA6ECA6A661ECA662EC9E
:10106000A6ECA6ECA6A661ECA662ECA6ECA6ECA605
:10107000A661ECA662ECA7ECA7ECA7A761ECA762BF
:10108000ECA7ECA7ECA7A761ECA762ECA4ECA4EC9E
:10109000A4A461ECA462ECA4ECA4ECA4A441ACA4D0
:1010A000002B43A299A299A29962E260D961E2E180
:1010B0009B969B969B9662DB60D661DBD997929755
:1010C000A29792D7D2D7DB999499949994E1DB991E
:1010D0000100001E00002040979561D497A0DB9787
:1010E000A2E063E4A09B61D9A5A2E0DB65E000205B
:1010F000408C8C80848484828561C58487878784C2
:10110000878787858989898790879290949492D0E0
:101110000020408C8C8C8787878C8B61CB9C909037
:10112000909C9090909C9292929C949C959497976E
:1011300095D4010000140000204096928992946298
:10114000D99496948943920020418C8662D160C4E0
:10115000898943860100003C0000204095959595C3
:101160009C939C979C4695002040908B8A898C8705
:101170008C8A8C468901000011241FBECFE5D2E085
:10118000DEBFCDBF10E0A0E6B0E0E0EBF8E102C0CA
:1011900005900D92A837B107D9F720E0A8E7B0E095
:1011A00001C01D92A23AB207E1F717D27FC328C748
:1011B00008B601FEFDCF88B7826088BF0895EF9220
:1011C000FF920F931F93CF93DF93C0E0D0E083E3B0
:1011D000E82EF12CC7010C2E02C0959587950A9434
:1011E000E2F780FF14C0C19A01EA17E0E1DF015085
:1011F000110901151105D1F72196C830D10551F714
:10120000DF91CF911F910F91FF90EF900895C198BA
:10121000EBCFCF93B09B02C0CF910895CFEFC8DF43
:10122000C150C111FCCFF6CFCF93CBB51BBC80E230
:101230008BBF81E085BB789485B7877E806185BF51
:1012400085B7806285BF889585B78F7D85BFF89407
:101250001BBE15BADEDFCBBDCF9108952F923F9212
:101260004F925F926F927F928F929F92AF92BF92B6
:10127000CF92DF92EF92FF920F931F93CF93DF9362
:10128000CDB7DEB766970FB6F894DEBF0FBECDBF01
:10129000FC0184918F010E5F1F4F3196E491582E0F
:1012A0004E2E7E0129E0E20EF11C88E0D7011D924E
:1012B0008A95E9F7C20175E0969587957A95E1F7E9
:1012C0009C0140E050E0298B3A8B4B8B5C8BCA0130
:1012D000B9015ED29B01AC0160EC71EE84EE99E441
:1012E000C3D1698B7A8B8B8B9C8B69897A898B892B
:1012F0009C8922D23B0180E09E2CDF2C0F5F1F4F88
:10130000F8013197E491E111E5C0F8019491992336
:1013100071F091E0980FE82FF0E0EE0FFF1FE75615
:10132000FF4F11830083833009F0D5C084E08093A0
:10133000A1006091A100062F10E049E950E021E9E9
:1013400030E089E890E0ADE8B0E07A2FEDE8F0E039
:101350007E1B761708F4C1C0EE24E394F12C0150F3
:101360001109C090A1008C2D90E00817190708F012
:101370007BC0D801A757BF4F8C91882309F470C058
:10138000980123573F4FF90180819FEF980F908379
:10139000811166C0C801880F991FA80143585F4F8B
:1013A0005A8B498BAC014F565F4FBC90EB2DE295A9
:1013B000E695E695E370B7FE9FC0E0FB222420F897
:1013C000312CF101E82BF92BEF57FF4F4081F90148
:1013D00040832B2D2F70F801E358FF4FA08040E091
:1013E00050E02C30C8F4E22FF0E0EE0FFF1FE05A7F
:1013F000FF4F408151812B2D2295237030E061E019
:1014000070E0A3FC02C064E070E0260F371F02C04A
:10141000569547952A95E2F7E1E0F0E0EC0FFD1FC5
:10142000E80FF91F5187408711821082A2FAAA247F
:10143000A0F82FEF30E002C035952795AA94E2F787
:10144000F801E758FF4F20838F569F4FFC01208102
:1014500031812F5F3F4F31832083F90124912C93F9
:101460000115110509F48301FE01319669E770E069
:10147000998ADA8A4DE750E0812C842F2DE730E0FD
:10148000821B8C1508F47CC0809278008BBC31E004
:10149000E31AF1088091A10090E0E816F906B0F493
:1014A000F701E358FF4F808180FD09C0F701E7583D
:1014B000FF4F8081982F92959F70891B8083E11444
:1014C000F10421F48CE2E82EFF24F394B09B3EC09B
:1014D0006FDE45CF982F892F11CFFA01E190F1905F
:1014E000AF01F901E192F1929F011D92F701E490A1
:1014F000FC01E192CF0129CFFB2DF295F695F77013
:10150000E130B9F4F170FD8B1E8AED89FE89E82B7C
:10151000F92BEF57FF4F6B2D6F716083FA016081DC
:1015200071816F5F7F4F71836083FB0164916C9366
:101530003CCFF13031F46B2D6F71E989FA8960830A
:10154000EDCFF1E0BF12EACF40FCF3CE1BBC6696B4
:101550000FB6F894DEBF0FBECDBFDF91CF911F91C4
:101560000F91FF90EF90DF90CF90BF90AF909F9042
:101570008F907F906F905F904F903F902F9049CECB
:101580005F01208131812F5F3F4F31832083A98903
:10159000BA898D919D91BA8BA98B2817390711F4BF
:1015A000118210823296DA012D91AD0126952170BB
:1015B0002F5F02C0969587952A95E2F7D5012D9168
:1015C0003C912817390728F4DB018C918695869584
:1015D000880E6F5F7F4F51CF189583E08ABD8AE0F8
:1015E00083BF82E489BD81E080BF90E69CBD97E027
:1015F00097BD1BBC9FEF9DBD9EE197BB88BB16B8F6
:1016000019BE12BE1FBCDBDD0FDE85E391E126DED5
:10161000D6DD0ADE83ED90E121DED1DD05DE8FE847
:101620009FE01CDECCDD00DE8EE19EE017DEC7DD34
:10163000FBDD8BE79CE012DEC2DDF6DD84E69AE09E
:101640000DDEBDDDF1DD89E597E008DEB8DDECDD1E
:101650008EED93E003DE87E591E100DEB0DDE4DDB1
:101660008EE190E0FBDDCFCF0CD0E6C0DED040F0C5
:10167000D5D030F021F45F3F19F0C7C0511110C12F
:10168000CAC0EBD098F39923C9F35523B1F3951B46
:10169000550BBB27AA2762177307840738F09F5F93
:1016A0005F4F220F331F441FAA1FA9F333D00E2E02
:1016B0003AF0E0E830D091505040E695001CCAF76F
:1016C00029D0FE2F27D0660F771F881FBB1F261734
:1016D00037074807AB07B0E809F0BB0B802DBF0107
:1016E000FF2793585F4F2AF09E3F510568F08DC049
:1016F000D7C05F3FECF3983EDCF38695779567950E
:10170000B795F7959F5FC9F7880F911D96958795B7
:1017100097F90895E1E0660F771F881FBB1F6217D6
:1017200073078407BA0720F0621B730B840BBA0B94
:10173000EE1F88F7E095089598D088F09F5790F0B5
:10174000B92F9927B751A0F0D1F0660F771F881FE6
:10175000991F1AF0BA95C9F712C0B13081F09FD025
:10176000B1E008959CC0672F782F8827B85F39F0C3
:10177000B93FCCF3869577956795B395D9F73EF445
:1017800090958095709561957F4F8F4F9F4F0895ED
:10179000E89409C097FB3EF490958095709561950B
:1017A0007F4F8F4F9F4F9923A9F0F92F96E9BB27C1
:1017B0009395F695879577956795B795F111F8CF3D
:1017C000FAF4BB0F11F460FF1BC06F5F7F4F8F4FA8
:1017D0009F4F16C0882311F096E911C0772321F09E
:1017E0009EE8872F762F05C0662371F096E8862F36
:1017F00070E060E02AF09A95660F771F881FDAF78D
:10180000880F9695879597F9089597F99F6780E8CF
:1018100070E060E008959FEF80EC089500240A9442
:101820001616170618060906089500240A941216BB
:101830001306140605060895092E0394000C11F4EE
:10184000882352F0BB0F40F4BF2B11F460FF04C09B
:101850006F5F7F4F8F4F9F4F089557FD9058440FF4
:10186000551F59F05F3F71F04795880F97FB991FFF
:1018700061F09F3F79F087950895121613061406BC
:10188000551FF2CF4695F1DF08C016161706180649
:10189000991FF1CF86957105610508940895E89424
:1018A000BB2766277727CB0197F90895F894FFCFD8
:1018B00077070C07A7064706ED0598054705FC04C2
:0818C000B40470043104F403C8
:00000001FF
