:1000000059C573C587C771C570C56FC56EC56DC548
:100010006CC56BC56AC569C568C567C566C54381DA
:100020000020408B8C8C9461D4D2D2D4D4DCD4D731
:10003000DCDBD9DCDCDCD4DCD4D2D4DCD4D2D4D745
:10004000D7D2CBDCD4DCDBDCD4D2D2D4D4DCD4D752
:10005000D7D9DBDCDCDCD49C92D49C92D4D7D9DB1E
:10006000D99C97D4D2D4DCDCDCE2DCDCD4D2D4431F
:1000700094D2D494D2D4D4D7E2DCDCD4D2D488D2F3
:10008000D494D2D4D4D7E2DCDCD4D2D494D2D494D5
:10009000D2D4D4D7E2DCDCD4D2D494D2D4D7D9D73A
:1000A000DCDCDCCBCCCCD4D2DCDCC9CBCBCBC9C741
:1000B000CCCCCCCCCCCCCCD2DCDCC9CBCBCBD4D252
:1000C000DCDCDCCBCCCBD4D2DCDCDCCBCBCBC9C70F
:1000D000CCCCCCCCCCCCCCCCCCC9CCCBCBCBC9C76E
:1000E000CCCCCCCBCCCCD4D2DCDCC9CBCBCBC9C731
:1000F000CCCCCCCCCCCCCCD2DCDCC9CBCBCBD4D212
:10010000DCDCDCCBCCCBD4D2DCDCD2D4D4D4D7DB9B
:10011000DCDCDCD9D7D9D7D9D7D9D7D4D7D4D2D466
:10012000DC93408B8C8C94D4D2D2D4D4DCD4D7DC66
:10013000DBD9DCDCDCD4DCD4D2D4DCD4D2D4D7D749
:10014000D2CBDCD4DCDBDCD4D2D2D4D4DCD4D7D751
:10015000D9DBDCDCDCD49C92D49C92D4D7D9DBD91B
:100160009C97D4D2D4DCDCDC002A40ABACAC44ABF2
:1001700041A9A963E9B2B2F2B2B2F240ABACAC446D
:10018000AB41A9A9E9B2B2F2B2B2F240ABACAC4415
:10019000AB41A9A9E9B2B2F2B2B2F240ABACAC4405
:1001A000AB41A9A9E9B2B2F2B2B2F25FACACACAC6D
:1001B000ACACACAC40ABACAC44AB41A9A9E9B2B27D
:1001C000F2B2B2F240ABACAC44AB41A9A9E9B2B2D5
:1001D000F2B2B2F240ABACAC44AB41A9A9E9B2B2C5
:1001E000F2B2B2F2ABABEBA9A9E9B2B2F2F2FC40C7
:1001F000ABACAC44AB41A9A9E9B2B2F2B2B2F240A5
:10020000ABACAC44AB41A9A9E9B2B2F2B2B2F24094
:10021000ABACAC44AB41A9A9E9B2B2F2B2B2F24084
:10022000ABACAC44AB41A9A9E9B2B2F2B2B2F200B4
:100230002A4190A063D08B8BCB9494D492A292A2AB
:1002400090A0D08B8BCB9494D492A292A290A0D069
:100250008B8BCB9494D492A292A290A0D08B8BCB78
:100260009494D49797D790A0D08B8BCB9494D4921E
:10027000A292A290A0D08B8BCB9494D492A292A263
:1002800090A0D08B8BCB9494D492A292A290A0D029
:100290008B8BCB9494D49797D7909C90A092A2925A
:1002A000A294A494A492A292A290A090A092A292AE
:1002B000A294A494A492A292A2909C90A092A292A2
:1002C000A294A494A492A292A290A090A092A2928E
:1002D000A294A494A492A292A2909C90A092A29282
:1002E000A294A494A492A292A290A090A092A2926E
:1002F000A294A494A492A292A2909C90A08B9B8B77
:100300009B94A494A492A292A290A090A08B9B8B69
:100310009B94A494A492A292A290A0D08B8BCB94F5
:1003200094D492A292A290A0D08B8BCB9494D4928E
:10033000A292A290A0D08B8BCB9494D492A292A2A2
:1003400090A0D08B8BCB9494D49797D7002643ACB6
:10035000A0ACA0ACA061ECE0A0ACA0ACA0ACA0ECC8
:10036000E0A0ACA0ACA0ACA0ECE0A0ACA0ACA0AC79
:10037000A0ECE0A0ECE0E0EC42A0A0E0ECE0E0ECDF
:10038000A0A0E0ECE0E0ECA0A0E0ECE0E0ECA0A0BD
:10039000E0ECE0E0ECA0A0E0ECE0E0ECA0A0E0EC21
:1003A000E0E0ECA0A0E0ECE0E0ECA0A0E05FACAC12
:1003B000ACACACACACAC43ACA0ACA0ACA0ECE0A0A2
:1003C000ACA0ACA0ACA0ECE0A0ACA0ACA0ACA0EC0D
:1003D000E0A0ACA0ACA0ACA0ECE0A00100003C0010
:1003E000002040959595959C939C979C4695002060
:1003F00040908B8A898C878C8A8C4689010000DB2F
:1004000001002041A5A4A3A2A1A09B9A9998979628
:100410009594939291908B8A8988878677C5CCC56D
:10042000CCD5E0DB4B9C4597429899DADCDADCD5F9
:10043000E0DB4B9C4597429899DADCDADC42A0A0DD
:10044000A0A065E0A0A0A0A0E0ECECA0A0A0A0E08F
:10045000A0A0A0A0E0ECEC4B85D0CBCC87CA578AFB
:10046000CA428586C7C44B85D0CBCC87CA578ACAB7
:10047000428586C7C495959595D594949494D493C4
:10048000939393D3549C9C4295959595D59494942D
:1004900094D493939393D3549C9C41858687888965
:1004A0008A8B909192939495969798999A9BA0A1F4
:1004B000A2A3A40020419998979695949392919025
:1004C00028BBBAB9B8B7B6B5B4B3B2B1B0ABAA65C8
:1004D000E9EBE9EBE9EBE9EBE9EBE9EBE9EBE9EB7C
:1004E00020428990899089908990899089908990FB
:1004F000899087928B9287928B9287928B92879228
:100500008B9261E7D5E1D1DAD7E5D1DAC7D7C5E17A
:10051000C7D5C5DAD7DAC7D1D5D7DAE6D1DAC6D1A9
:10052000DAE1C6D1DAC1C6E1C6D1DAC1C6D1D6DABE
:10053000E1DAC6899089908990899089908990891B
:1005400090899087928B9287928B9287928B9287D9
:10055000928B92E7D5E1D1DAD7E5D1DAC7D7C5E1F9
:10056000C7D5C5DAD7DAC7D1D5D7DAE6D1DAC6D159
:10057000DAE1C6D1DAC1C6E1C6DAD1C1C68A91963E
:100580009A9494949465D494949494D4DCDC949444
:100590009494D494949494D4DCDC28A8B0A8B0A803
:1005A000B0A8B0A8B0A8B0A8B0A8B0AAB1AAB1AA83
:1005B000B1AAB1AAB1AAB1AAB1AAB1A8B0A8B0A86B
:1005C000B0A8B0A8B0A8B0A8B0A8B0AAB1AAB1AA63
:1005D000B1AAB1AAB1AAB1AAB1AAB120889090904B
:1005E000D090909090D090909090D08080C080805B
:1005F000C08080C0808088909090D090909090D063
:1006000090909090D08080C08080C08080C080809A
:100610002841A9AAABB0B1B2B3B4B5B6B7B8B9BAAC
:10062000BB20909192939495969798010020578CB7
:100630008C2845A6A8A6A8A6A8A6A8A6A8A6A8A647
:10064000A8A6A8A562E5E5A5E5E5A5E5E5A5E5E596
:10065000A5E5E5A5E5E5A5E5E5A5E5E561E520D1A7
:10066000C7C5D7D1E1C5D7C1D128EAD5EA20D1C1C4
:10067000D7C5D728EAF5FCEA20D728E5EA20D12813
:10068000EAF620D6DA28EA20D1D628EAF1FCEA20D8
:10069000D6C628EAF1E6EA20D6DAD628EAA562E547
:1006A000E5A5E5E5A5E5E5A5E5E5A5E5E5A5E5E53A
:1006B000A5E5E5A5E5E561E520D1C7C5D7D1E1C54B
:1006C000D7C1D128EAD5EA20D1C1D7C5D728EAF5C4
:1006D000FCEA20D728E5EA20D128EAF620D6DA2855
:1006E000EA20D1D628EAF1FCEA20D6C628EAF1624F
:1006F00020C6CAD1D628FAFAFAFABAFAFAFAFABA37
:10070000F0E6E4E1FAFAFAFABAFAFAFAFABAF0E634
:10071000E4E1A5E5E5A5E5E5A5E5E5A5E5E5A5E5CE
:10072000E5A5E5E5A5E5E5A5E5E5A5E5E5A5E5E5B9
:10073000A5E5E5A5E5E5A5E5E5A5E5E5A5E5E5A5E9
:10074000E5E5E5F8F8F8B8F8F8F8F8B8F8F8F8F8E2
:10075000B8E0E0A0E0E0A0E0E0A0E0E0E5F8F8F834
:10076000B8F8F8F8F8B8F8F8F8F8B8E0E0A0E0E081
:10077000A0E0E0A0E0E06BE30000418100234099AD
:100780009C63D99B9C999C969C61D9DC999C63D96C
:100790009B9C999C969C61D9DC929C929C929C9487
:1007A0009C64D69C929CD69C999C67D9929C929C66
:1007B000929C949CD6929C929C929C949CD6949C45
:1007C000949C949C929C61D4DCD6DCD9DCD7DCD69A
:1007D000DCD4DC002A41AC40A962ECA9ECA9A961F7
:1007E000ECA962ECA9ECA9ECA9A961ECA962ECABBB
:1007F000ECABECABAB61ECAB62ECABECABECABAB56
:1008000061ECAB62ECABECABECABAB61ECAB62ECD8
:10081000ABECABECABAB61ECAB62ECA9ECA9ECA93B
:10082000A961ECA962ECA9ECA9ECA9A941ACA900C9
:100830002A41AC40A662ECA6ECA6A661ECA662EC4E
:10084000A6ECA6ECA6A661ECA662ECA6ECA6ECA62D
:10085000A661ECA662ECA6ECA6ECA6A661ECA662EC
:10086000ECA7ECA7ECA7A761ECA762ECA7ECA7ECC0
:10087000A7A761ECA762ECA4ECA4ECA4A461ECA48F
:1008800062ECA4ECA4ECA4A441ACA4002B43A29978
:10089000A299A29962E260D961E2E19B969B969B44
:1008A0009662DB60D661DBD9979297A29792D7D2F6
:1008B000D7DB999499949994E1DB99010000460162
:1008C000002061D6D84092D38B9291CBCBD1D292DB
:1008D000918B91939698939691938B918BD3D69875
:1008E000939691938B929392918B91D28B919396B5
:1008F0009192918BD1CBD1D6D892D38B9291CBCBF5
:10090000D1D292918B91939698939691938B918B50
:10091000D3D698939691938B929392918B91D28BFD
:100920009193969192918BD1CBCBCB8688CB8688B5
:100930008B91938B94939496CBCB86888B86949350
:10094000918B86838486CB8688CB86888B8B91938C
:100950008B868886CB8B8A8B86888B94939496CB58
:10096000CACB8688CB86888B91938B94939496CBB5
:10097000CB86888B869493918B86838486CB86885E
:10098000CB86888B8B91938B868886CB8B8A8B8644
:10099000888B94939496CBD1002861E4E4E6E6E357
:1009A000E3E8E8E1E1E6E6DBDB409BA2A19BE4E4CF
:1009B000E6E6E3E3E8E8E1E1E6E6DBDB9BA1A2A310
:1009C000E4E4E6E6E3E3E8E8E1E1E6E6DBDB9BA27C
:1009D000A19BE4E4E6E6E3E3E8E8E1E1E6E6DBDB6D
:1009E0009BA1A2A3E4E4E6E6E3E3E8E8E1E1E6E6CE
:1009F000DBDB9BA2A19BE4E4E6E6E3E3E8E8E1E1DC
:100A0000E6E6DBDB9BA1A2A3E4E4E6E6E3E3E8E8B9
:100A1000E1E1E6E6DBDB9BA2A19BE4E4E6E6E3E3BF
:100A2000E8E8E1E1E6E6DBDB9BA1A2A30100001E12
:100A300000002040979561D497A0DB97A2E063E483
:100A4000A09B61D9A5A2E0DB65E00020408C8C80F2
:100A5000848484828561C584878787848787878526
:100A60008989898790879290949492D00020408CB5
:100A70008C8C8787878C8B61CB9C9090909C90907E
:100A8000909C9292929C949C9594979795D40100F7
:100A9000001400002040969289929462D994969412
:100AA0008943920020418C8662D160C48989438643
:100AB0000100000011241FBECFE5D2E0DEBFCDBF94
:100AC00010E0A0E6B0E0EEECF1E102C005900D927E
:100AD000A837B107D9F720E0A8E7B0E001C01D9220
:100AE000A23AB207E1F717D270C38ACA08B601FE6C
:100AF000FDCF88B7826088BF0895EF92FF920F9371
:100B00001F93CF93DF93C0E0D0E083E3E82EF12C76
:100B1000C7010C2E02C0959587950A94E2F780FFD5
:100B200014C0C19A01EA17E0E1DF01501109011573
:100B30001105D1F72196C830D10551F7DF91CF913A
:100B40001F910F91FF90EF900895C198EBCFCF9335
:100B5000B09B02C0CF910895CFEFC8DFC150C11143
:100B6000FCCFF6CFCF93CBB51BBC80E28BBF81E02F
:100B700085BB789485B7877E806185BF85B78062A5
:100B800085BF889585B78F7D85BFF8941BBE15BA44
:100B9000DEDFCBBDCF9108952F923F924F925F92AF
:100BA0006F927F928F929F92AF92BF92CF92DF927D
:100BB000EF92FF920F931F93CF93DF93CDB7DEB7E2
:100BC00066970FB6F894DEBF0FBECDBFFC018491CF
:100BD0008F010E5F1F4F3196E491582E4E2E7E01ED
:100BE00029E0E20EF11C88E0D7011D928A95E9F711
:100BF000C20175E0969587957A95E1F79C0140E0F2
:100C000050E0298B3A8B4B8B5C8BCA01B9014FD2D8
:100C10009B01AC0160EC71EE84EE99E4B4D1698B78
:100C20007A8B8B8B9C8B69897A898B899C8913D26F
:100C30003B0180E09E2CDF2C0F5F1F4FF8013197A6
:100C4000E491E111E5C0F8019491992371F091E0EC
:100C5000980FE82FF0E0EE0FFF1FE756FF4F1183CC
:100C60000083833009F0D5C084E08093A1006091B7
:100C7000A100062F10E049E950E021E930E089E8C1
:100C800090E0ADE8B0E07A2FEDE8F0E07E1B76175B
:100C900008F4C1C0EE24E394F12C01501109C09076
:100CA000A1008C2D90E00817190708F07BC0D8012F
:100CB000A757BF4F8C91882309F470C09801235720
:100CC0003F4FF90180819FEF980F9083811166C09B
:100CD000C801880F991FA80143585F4F5A8B498B51
:100CE000AC014F565F4FBC90EB2DE295E695E69533
:100CF000E370B7FE9FC0E0FB222420F8312CF10105
:100D0000E82BF92BEF57FF4F4081F90140832B2D42
:100D10002F70F801E358FF4FA08040E050E02C30E6
:100D2000C8F4E22FF0E0EE0FFF1FE05AFF4F4081C2
:100D300051812B2D2295237030E061E070E0A3FCFF
:100D400002C064E070E0260F371F02C05695479539
:100D50002A95E2F7E1E0F0E0EC0FFD1FE80FF91F44
:100D60005187408711821082A2FAAA24A0F82FEF9F
:100D700030E002C035952795AA94E2F7F801E758CC
:100D8000FF4F20838F569F4FFC01208131812F5FC1
:100D90003F4F31832083F90124912C9301151105D4
:100DA00009F48301FE01319669E770E0998ADA8AD5
:100DB0004DE750E0812C842F2DE730E0821B8C150D
:100DC00008F47CC0809278008BBC31E0E31AF10813
:100DD0008091A10090E0E816F906B0F4F701E3581D
:100DE000FF4F808180FD09C0F701E758FF4F8081E8
:100DF000982F92959F70891B8083E114F10421F450
:100E00008CE2E82EFF24F394B09B3EC06FDE45CF0A
:100E1000982F892F11CFFA01E190F190AF01F901DC
:100E2000E192F1929F011D92F701E490FC01E192A1
:100E3000CF0129CFFB2DF295F695F770E130B9F48B
:100E4000F170FD8B1E8AED89FE89E82BF92BEF5797
:100E5000FF4F6B2D6F716083FA01608171816F5F4D
:100E60007F4F71836083FB0164916C933CCFF130C1
:100E700031F46B2D6F71E989FA896083EDCFF1E070
:100E8000BF12EACF40FCF3CE1BBC66960FB6F894B7
:100E9000DEBF0FBECDBFDF91CF911F910F91FF90AD
:100EA000EF90DF90CF90BF90AF909F908F907F900A
:100EB0006F905F904F903F902F9049CE5F012081BF
:100EC00031812F5F3F4F31832083A989BA898D916A
:100ED0009D91BA8BA98B2817390711F411821082C2
:100EE0003296DA012D91AD01269521702F5F02C057
:100EF000969587952A95E2F7D5012D913C91281773
:100F0000390728F4DB018C9186958695880E6F5FF2
:100F10007F4F51CF189583E08ABD8AE083BF82E47A
:100F200089BD81E080BF90E69CBD97E097BD1BBC6A
:100F30009FEF9DBD9EE197BB88BB16B819BE12BE40
:100F40001FBCDBDD0FDE81E99AE026DED6DD0ADE9E
:100F50008FE29AE021DED1DD05DE8EEB98E01CDE2B
:100F6000CCDD00DE8AE797E017DEC7DDFBDD8FEF23
:100F700093E012DE8EED93E00FDEBFDDF3DD8EE158
:100F800090E00ADEDECF0CD0E6C0DED040F0D5D057
:100F900030F021F45F3F19F0C7C0511110C1CAC031
:100FA000EBD098F39923C9F35523B1F3951B550B57
:100FB000BB27AA2762177307840738F09F5F5F4F2C
:100FC000220F331F441FAA1FA9F333D00E2E3AF06D
:100FD000E0E830D091505040E695001CCAF729D087
:100FE000FE2F27D0660F771F881FBB1F26173707D6
:100FF0004807AB07B0E809F0BB0B802DBF01FF2706
:1010000093585F4F2AF09E3F510568F08DC0D7C0BE
:101010005F3FECF3983EDCF3869577956795B7953F
:10102000F7959F5FC9F7880F911D9695879597F95A
:101030000895E1E0660F771F881FBB1F62177307D3
:101040008407BA0720F0621B730B840BBA0BEE1FE8
:1010500088F7E095089598D088F09F5790F0B92FC1
:101060009927B751A0F0D1F0660F771F881F991FFD
:101070001AF0BA95C9F712C0B13081F09FD0B1E033
:1010800008959CC0672F782F8827B85F39F0B93F43
:10109000CCF3869577956795B395D9F73EF49095FF
:1010A0008095709561957F4F8F4F9F4F0895E8947D
:1010B00009C097FB3EF490958095709561957F4FA0
:1010C0008F4F9F4F9923A9F0F92F96E9BB2793954E
:1010D000F695879577956795B795F111F8CFFAF45E
:1010E000BB0F11F460FF1BC06F5F7F4F8F4F9F4F8F
:1010F00016C0882311F096E911C0772321F09EE8ED
:10110000872F762F05C0662371F096E8862F70E052
:1011100060E02AF09A95660F771F881FDAF7880F2C
:101120009695879597F9089597F99F6780E870E0FD
:1011300060E008959FEF80EC089500240A9416164D
:10114000170618060906089500240A9412161306B5
:10115000140605060895092E0394000C11F4882343
:1011600052F0BB0F40F4BF2B11F460FF04C06F5F5F
:101170007F4F8F4F9F4F089557FD9058440F551F35
:1011800059F05F3F71F04795880F97FB991F61F009
:101190009F3F79F087950895121613061406551F80
:1011A000F2CF4695F1DF08C0161617061806991FEC
:1011B000F1CF86957105610508940895E894BB27E1
:0E11C00066277727CB0197F90895F894FFCFA3
:1011CE0077070C07A7064706ED0598054705FC04AB
:0811DE00B40470043104F403B1
:00000001FF
