:1000000019C028C027C026C225C024C023C022C0D2
:1000100021C020C01FC01EC01DC01CC01BC01AC0F4
:1000200019C018C017C016C015C014C013C012C024
:1000300011C010C011241FBECFEFCDBFDFE3DEBF64
:100040002FE3A0E8BFE301C01D92A63AB207E1F793
:1000500007D272C3D5CF8091460A80FFFCCF81E0E2
:100060008093460A0895CF92DF92FF920F931F93D9
:10007000CF93DF93C0E0D0E083E3C82ED12C98E08B
:10008000F92EC6010C2E02C0959587950A94E2F7C9
:1000900080FF16C0F092050404EC19E0DCDF01508B
:1000A000110901151105D1F72196C830D10549F77D
:1000B000DF91CF911F910F91FF90DF90CF90089526
:1000C000F0920604E9CFCF93179B02C0CF91089519
:1000D000CFEFC1DFC150C111FCCFF6CFCF93C0B17C
:1000E00010B8789485E0809350008895F894EBDF01
:1000F000C0B9CF9108952F923F924F925F926F9225
:100100007F928F929F92AF92BF92CF92DF92EF92A7
:10011000FF920F931F93CF93DF93CDB7DEB768970E
:10012000CDBFDEBFDC014D905D908D015424452490
:100130005424FE01399688E0DF011D928A95E9F783
:10014000C20123E0969587952A95E1F79C0140E04E
:1001500050E0298B3A8B4B8B5C8BCA01B9014ED294
:100160009B01AC0160E07CE782E19BE4A6D1698B56
:100170007A8B8B8B9C8B69897A898B899C890FD22E
:10018000962EA72E80E0D8019D919111ECC0F80128
:100190009181992309F4EBC0BB24B394B80EE82FE6
:1001A000F0E0EE0FFF1FE356F04CA083B1838330E5
:1001B00009F0DAC0B092A53FCB2CD12C9601220FCA
:1001C000331F298B3A8B49895A896DE97FE385E989
:1001D0009FE3A2D2A60160E070E081E99FE3A5D28F
:1001E0008601EE24E394F12C015011090C151D0534
:1001F00008F07EC0C801880F991F9C012B56304C17
:10020000D901ED91FC914081442309F46CC0D801DF
:10021000AF56B04C4C915FEF540F5C93411163C0EB
:10022000F801EB57F04CEF8BF88FF9010190F0815A
:10023000E02DED8BFE8B8080482D429546954695AE
:10024000437087FE96C040FB222420F8312C910198
:10025000282B392B2757304CF90120812C93282D3E
:100260002F70D801AB57B04CAC9140E050E02C302F
:10027000C8F430E0220F331F245C3847F901408175
:100280005181282D2295237030E061E070E0A3FDBC
:1002900002C064E070E0260F371F02C056954795F4
:1002A0002A95E2F721E030E02C0F3D1F280F391F7F
:1002B000F9014087518710821182A2FBAA27A0F979
:1002C0002FEF30E002C035952795AA95E2F7D801C7
:1002D000AF57B04C2C938B56904CED89FE893196DC
:1002E000DC01ED93FC930115110511F4092D1A2D74
:1002F000FE01319621E83FE3AE01475F5F4F65E8BD
:100300007FE36F8B788F812C8F8965E87FE3861B75
:100310008B1508F471C08092803F882D90E0809307
:100320003C0A90933D0A71E0E71AF108EC14FD04D1
:10033000B0F4F701EB57F04C808180FD09C0F70164
:10034000EF57F04C8081982F92959F70891B808386
:10035000E114F10421F480E8E82EFF24F394179BC4
:1003600031C079DE41CFB82E8B2D8D010CCFB82E48
:1003700021CF582D5295569557704130B1F450FB0E
:10038000662460F8712CA301482B592B4757504C19
:10039000F82DFF718F2EFA0180824D895E894F5FA3
:1003A0005F4FF9014083518340CF513031F4482DE4
:1003B0004F71EF89F88D4083F0CFF1E08F12EDCFD0
:1003C00042FC01CF10923C0A10923D0A6896CDBFC4
:1003D000DEBFDF91CF911F910F91FF90EF90DF90E3
:1003E000CF90BF90AF909F908F907F906F905F90D5
:1003F0004F903F902F9067CEED8BFE8B6081718187
:100400006F5F7F4F60837183DA018D919D91AD01A4
:100410006817790711F4108211823296AF89B88D6E
:100420006D91AF8BB88F669561706F5F02C09695C6
:1004300087956A95E2F7AD89BE896D917C916817C1
:10044000790728F4D9018C9186958695880E2F5FBF
:100450003F4F5ACF8F9380E8809309048F9118956E
:1004600081E08093000A83E48093010A8FEF90E09B
:100470008093260A9093270A85E08093400A109281
:10048000410A83EF91E080934C0A90934D0A88EDE6
:1004900090E084BF909361008CE0809301048DE034
:1004A00080931704E0DD1ADE83EB97E824DEDBDDC2
:1004B00015DE84E597E81FDEF5CF0E9471020C94EB
:1004C00052030E944B0358F00E94440340F029F469
:1004D0005F3F29F00C943B0351110C9486030C945C
:1004E00041030E94630368F39923B1F3552391F309
:1004F000951B550BBB27AA2762177307840738F093
:100500009F5F5F4F220F331F441FAA1FA9F335D0EF
:100510000E2E3AF0E0E832D091505040E695001CA3
:10052000CAF72BD0FE2F29D0660F771F881FBB1F5D
:10053000261737074807AB07B0E809F0BB0B802D3B
:10054000BF01FF2793585F4F3AF09E3F510578F067
:100550000C943B030C9486035F3FE4F3983ED4F382
:10056000869577956795B795F7959F5FC9F7880F3B
:10057000911D9695879597F90895E1E0660F771F8D
:10058000881FBB1F621773078407BA0720F0621B1E
:10059000730B840BBA0BEE1F88F7E09508950E9449
:1005A0006B0388F09F5798F0B92F9927B751B0F097
:1005B000E1F0660F771F881F991F1AF0BA95C9F7E7
:1005C00014C0B13091F00E948503B1E008950C94FD
:1005D0008503672F782F8827B85F39F0B93FCCF3B0
:1005E000869577956795B395D9F73EF49095809564
:1005F000709561957F4F8F4F9F4F0895E89409C084
:1006000097FB3EF490958095709561957F4F8F4F45
:100610009F4F9923A9F0F92F96E9BB279395F6955B
:10062000879577956795B795F111F8CFFAF4BB0FD9
:1006300011F460FF1BC06F5F7F4F8F4F9F4F16C03D
:10064000882311F096E911C0772321F09EE8872FC7
:10065000762F05C0662371F096E8862F70E060E083
:100660002AF09A95660F771F881FDAF7880F9695FC
:10067000879597F9089597F99F6780E870E060E0A3
:1006800008959FEF80EC089500240A94161617062B
:1006900018060906089500240A9412161306140673
:1006A00005060895092E0394000C11F4882352F0D6
:1006B000BB0F40F4BF2B11F460FF04C06F5F7F4F8E
:1006C0008F4F9F4F089557FD9058440F551F59F075
:1006D0005F3F71F04795880F97FB991F61F09F3F2F
:1006E00079F087950895121613061406551FF2CF58
:1006F0004695F1DF08C0161617061806991FF1CFA8
:1007000086957105610508940895E894BB276627CE
:100710007727CB0197F90895FB01DC0102C0019016
:100720000D9241505040D8F70895DC0101C06D93FF
:0C07300041505040E0F70895F894FFCFCE
:10073C008E0905098308090896072907C206610670
:10074C000506AF055D0510051E000040979561D4A8
:10075C0097A0DB97A2E063E4A09B61D9A5A2E0DBA4
:10076C0065E000408C8C80848484828561C584879C
:10077C0087878487878785898989879087929094D2
:10078C009492D000408C8C8C8787878C8B61CB9C0F
:10079C009090909C9090909C9292929C949C95940A
:1007AC00979795D4010000140000204096928992EE
:1007BC009462D994969489439200418C8662D1605C
:0807CC00C48989438601000085
:00000001FF
