:1000000019C020C01FC037C01DC01CC01BC01AC0F3
:1000100019C018C017C016C015C014C013C012C034
:1000200011C010C00FC00EC00DC00CC00BC00AC064
:1000300009C008C011241FBECFEFCDBFDFE3DEBF74
:100040008CD0B4C0DDCF90B110B8789485E08093A7
:1000500050008895F89421E0179B02C090B908954C
:1000600088EC3091460A30FFFCCF2093460A81503D
:100070008111F7CFF1CF8F9380E8809309048F919E
:10008000189520E030E090E068E071E0AC01022ECD
:1000900002C0559547950A94E2F740FF15C060935A
:1000A000050444EC59E0E091460AE0FFFCCF709370
:1000B000460A4150510941155105A9F72F5F3F4F9D
:1000C0002830310519F7089560930604EACFCF93DD
:1000D000AFEFBFEFE0E0F0E060E070E040E050E064
:1000E000C1E04F5F5F4F4C34510571F180E0463203
:1000F000510508F48FE390E06F5F7F4F6D3371051A
:1001000031F120E06E31710508F42FE330E0820F09
:10011000931F3196E333F105E9F020E0E931F10571
:1001200008F42FE330E0820F931F80932C0A909302
:100130002D0A8091460A80FFFCCFC093460A119792
:10014000109779F6CF91089540E050E0D3CF60E06A
:1001500070E0DBCFE0E0F0E0E4CF81E08093000AE4
:1001600083E48093010A8FEF90E08093260A9093B6
:10017000270A85E08093400A1092410A83EF91E0BC
:1001800080934C0A90934D0A88ED90E084BF909341
:1001900061008CE0809301048DE08093170483E379
:1001A00070DF51DF85E56DDF92DFF9CFF894FFCF87
:1001B0008E0905098308090896072907C206610602
:0801C0000506AF055D05100501
:00000001FF
