:1000000019C020C01FC033C01DC01CC01BC01AC0F7
:1000100019C018C017C016C015C014C013C012C034
:1000200011C010C00FC00EC00DC00CC00BC00AC064
:1000300009C008C011241FBECFEFCDBFDFE3DEBF74
:1000400043D068C0DDCF789485E0809350008895D8
:10005000F89491E01799089588EC2091460A20FFC2
:10006000FCCF9093460A81508111F7CFF3CF8F9345
:1000700080E8809309048F91189520E030E090E0AB
:1000800068E071E0AC01022E02C0559547950A94D4
:10009000E2F740FF15C06093050444EC59E0E0919D
:1000A000460AE0FFFCCF7093460A415051094115C2
:1000B0005105A9F72F5F3F4F2830310519F70895F3
:1000C00060930604EACF089581E08093000A83E4F8
:1000D0008093010A8FE090E08093260A9093270A8C
:1000E00085E08093400A1092410A83EF91E080936B
:1000F0004C0A90934D0A88ED90E084BF9093610084
:100100008CE0809301048DE0809317048FE7B5DFC6
:080110009ADFFCCFF894FFCF49
:00000001FF
