:1000000019C028C027C03AC025C024C023C022C0C0
:1000100021C020C01FC01EC01DC01CC01BC01AC0F4
:1000200019C018C017C016C015C014C013C012C024
:1000300011C010C011241FBECFEFCDBFDFE3DEBF64
:100040002FE3A0E8BFE301C01D92A63AB207E1F793
:100050001BD0D8C1D5CF8091460A80FFFCCF81E06C
:100060008093460A0895CF93179B02C0CF910895BD
:10007000CFEFF1DFC150C111FCCFF6CF8F9380E8F5
:10008000809309048F911895CF93DF93CDB7DEB796
:100090006997CDBFDEBF81E08093000A83E480933F
:1000A000010A8FEF90E08093260A9093270A85E05B
:1000B0008093400A1092410A83EF91E080934C0AAA
:1000C00090934D0A88ED90E084BF909361008CE09E
:1000D000809301048DE080931704F8E0EF2E1E0159
:1000E00029E0220E311C2D8A832C00E010E083E3EE
:1000F00090E0002E02C0959587950A94E2F780FF64
:1001000010C1E0920504E4ECCE2EE9E0DE2EA3DF80
:1001100031E0C31AD108C114D104C9F70F5F1F4FD2
:100120000830110521F710B110B8789485E080935C
:1001300050008895F89497DF10B9D101EE2D1D92EB
:10014000EA95E9F7F12CE2E2F4E8DF018D91811103
:10015000EBC08181882379F081E08F0DEF2DF0E0F5
:10016000EE0FFF1FE356F04CA083B183F3E0FF12C4
:10017000DCC064E0F62EF092A53F6F2C712C930149
:10018000220F331F2B8B3C8B4B895C896DE97FE3FE
:1001900085E99FE327D1A30160E070E081E99FE357
:1001A0002AD18301CC24C394D12C01501109061506
:1001B000170508F07DC0C801880F991F9C012B56B8
:1001C000304CD901ED91FC914081442309F46BC07E
:1001D000D801AF56B04C4C915FEF540F5C93411176
:1001E00062C0F801EB57F04CE88FF98FF9010190EC
:1001F000F081E02DEE8BFF8BB0804B2D4295469524
:1002000046954370B7FE94C04170498B1A8A29897C
:100210003A89282B392B2757304CF90120812C9310
:10022000AB2DAF7098012B57304CF901A08060E0E6
:1002300070E0AC30B0F4B0E0AA0FBB1FA85FBB47C2
:100240006D917C912B2D2295237030E041E0A3FE2F
:1002500044E050E0240F351F02C0769567952A953B
:10026000E2F7A1E0B0E0AC0FBD1FA80FB91F1896D0
:100270006D937C9319971D921C92A2FAAA24A0F860
:100280002FEF30E002C035952795AA94E2F7D80108
:10029000AF57B04C2C938B56904CEE89FF8931961A
:1002A000DC01ED93FC930115110511F40CE511E14E
:1002B000FE01319661E87FE3BD89BE8B8F8A45E8F8
:1002C0005FE3912C842F25E83FE3821B8F1508F410
:1002D00057C09092803F892D90E080933C0A909384
:1002E0003D0A31E0C31AD108C614D704B0F4F601B0
:1002F000EB57F04C808180FD09C0F601EF57F04CC0
:100300008081982F92959F70891B8083C114D1049E
:1003100021F480E8C82EDD24D394179B5DC09BDEBA
:1003200044CFE0920604EFCE8F2DF82EFD010DCFC5
:100330005B2D5295569557704130B1F450FB4424D3
:1003400040F8512CA201482B592B4757504CFB2DFC
:10035000FF71BF2EFA01B0824E895F894F5F5F4FF8
:10036000F9014083518342CF513031F44B2D4F710D
:10037000E88DF98D4083F0CFF1E0BF12EDCF04CFCF
:100380005F01208131812F5F3F4F20833183AE8910
:10039000BF898D919D91AE8BBF8B2817390711F4C2
:1003A000108211823296DA012D91AD0126952170CD
:1003B0002C5F02C0969587952A95E2F7D5012D917D
:1003C0003C912817390728F4DB018C918695869596
:1003D000980E6F5F7F4F76CF10923C0A10923D0AC5
:1003E00042DE83CEFB01DC0102C001900D92415040
:1003F0005040D8F70895DC0101C06D934150504042
:08040000E0F70895F894FFCF26
:100408008E0905098308090896072907C2066106A7
:100418000506AF055D05100543810020408B8C8CD7
:100428009461D4D2D2D4D4DCD4D7DCDBD9DCDCDC04
:10043800D4DCD4D2D4DCD4D2D4D7D7D2CBDCD4DC5D
:10044800DBDCD4D2D2D4D4DCD4D7D7D9DBDCDCDC27
:10045800D49C92D49C92D4D7D9DBD99C97D4D2D4AB
:10046800DCDCDCE2DCDCD4D2D44394D2D494D2D425
:10047800D4D7E2DCDCD4D2D488D2D494D2D4D4D7A2
:10048800E2DCDCD4D2D494D2D494D2D4D4D7E2DC73
:10049800DCD4D2D494D2D4D7D9D7DCDCDCCBCCCC46
:1004A800D4D2DCDCC9CBCBCBC9C7CCCCCCCCCCCC64
:1004B800CCD2DCDCC9CBCBCBD4D2DCDCDCCBCCCB18
:1004C800D4D2DCDCDCCBCBCBC9C7CCCCCCCCCCCC31
:1004D800CCCCCCC9CCCBCBCBC9C7CCCCCCCBCCCC63
:1004E800D4D2DCDCC9CBCBCBC9C7CCCCCCCCCCCC24
:1004F800CCD2DCDCC9CBCBCBD4D2DCDCDCCBCCCBD8
:10050800D4D2DCDCD2D4D4D4D7DBDCDCDCD9D7D968
:10051800D7D9D7D9D7D4D7D4D2D4DC93408B8C8C25
:1005280094D4D2D2D4D4DCD4D7DCDBD9DCDCDCD490
:10053800DCD4D2D4DCD4D2D4D7D7D2CBDCD4DCDB55
:10054800DCD4D2D2D4D4DCD4D7D7D9DBDCDCDCD42D
:100558009C92D49C92D4D7D9DBD99C97D4D2D4DCA2
:10056800DCDC002A40ABACAC44AB41A9A963E9B2DE
:10057800B2F2B2B2F240ABACAC44AB41A9A9E9B219
:10058800B2F2B2B2F240ABACAC44AB41A9A9E9B209
:10059800B2F2B2B2F240ABACAC44AB41A9A9E9B2F9
:1005A800B2F2B2B2F25FACACACACACACACAC40AB9F
:1005B800ACAC44AB41A9A9E9B2B2F2B2B2F240ABD9
:1005C800ACAC44AB41A9A9E9B2B2F2B2B2F240ABC9
:1005D800ACAC44AB41A9A9E9B2B2F2B2B2F2ABAB4E
:1005E800EBA9A9E9B2B2F2F2FC40ABACAC44AB4126
:1005F800A9A9E9B2B2F2B2B2F240ABACAC44AB4199
:10060800A9A9E9B2B2F2B2B2F240ABACAC44AB4188
:10061800A9A9E9B2B2F2B2B2F240ABACAC44AB4178
:10062800A9A9E9B2B2F2B2B2F2002A4190A063D00D
:100638008B8BCB9494D492A292A290A0D08B8BCB8C
:100648009494D492A292A290A0D08B8BCB9494D461
:1006580092A292A290A0D08B8BCB9494D49797D748
:1006680090A0D08B8BCB9494D492A292A290A0D03D
:100678008B8BCB9494D492A292A290A0D08B8BCB4C
:100688009494D492A292A290A0D08B8BCB9494D421
:100698009797D7909C90A092A292A294A494A49287
:1006A800A292A290A090A092A292A294A494A492A2
:1006B800A292A2909C90A092A292A294A494A49296
:1006C800A292A290A090A092A292A294A494A49282
:1006D800A292A2909C90A092A292A294A494A49276
:1006E800A292A290A090A092A292A294A494A49262
:1006F800A292A2909C90A08B9B8B9B94A494A49272
:10070800A292A290A090A08B9B8B9B94A494A4925D
:10071800A292A290A0D08B8BCB9494D492A292A2B6
:1007280090A0D08B8BCB9494D492A292A290A0D07C
:100738008B8BCB9494D492A292A290A0D08B8BCB8B
:100748009494D49797D7002643ACA0ACA0ACA061F2
:10075800ECE0A0ACA0ACA0ACA0ECE0A0ACA0ACA03D
:10076800ACA0ECE0A0ACA0ACA0ACA0ECE0A0ECE0AD
:10077800E0EC42A0A0E0ECE0E0ECA0A0E0ECE0E0DF
:10078800ECA0A0E0ECE0E0ECA0A0E0ECE0E0ECA065
:10079800A0E0ECE0E0ECA0A0E0ECE0E0ECA0A0E061
:1007A800ECE0E0ECA0A0E05FACACACACACACACACCA
:1007B80043ACA0ACA0ACA0ECE0A0ACA0ACA0ACA0BA
:1007C800ECE0A0ACA0ACA0ACA0ECE0A0ACA0ACA0CD
:0807D800ACA0ECE0A001000060
:00000001FF
