:1000000019C028C027C027C025C024C023C022C0D3
:1000100021C020C01FC01EC01DC01CC01BC01AC0F4
:1000200019C018C017C016C015C014C013C012C024
:1000300011C010C011241FBECFEFCDBFDFE3DEBF64
:100040002FE3A0E8BFE301C01D92AE39B207E1F78C
:1000500008D01DC1D5CF8F9380E8809309048F917C
:10006000189581E08093000A83E48093010A8FEF62
:1000700090E08093260A9093270A85E08093400AB7
:100080001092410A83EF91E080934C0A90934D0ABD
:1000900088ED90E084BF909361008CE08093010430
:1000A0008DE08093170403E310E078E0C72EDD2491
:1000B000D394E5E0BE2E80E090E09801082E02C0C7
:1000C000359527950A94E2F720FF70C0C092050489
:1000D00024EC39E04091460A40FFFCCFD092460A1A
:1000E0002150310921153105A9F701968830910574
:1000F00021F790B110B87894B09250008895F89498
:10010000179B57C090B9C0919D3FECEAF2E8C4300C
:1001100008F45AC0C0939D3FD0E07E01EE0CFF1C56
:10012000A70165E97FE38DE89FE3A1D0AE0160E020
:1001300070E089E89FE3A4D0CE0121E030E0019790
:100140008C179D0768F4FC01EE0FFF1FE357F04C7E
:10015000A081B1814C9141114AC0009709F471C04E
:1001600010923C0A10923D0A215031092C173D078C
:10017000A0F4F901EB57F04C408140FD09C0F901B2
:10018000E058F04C4081542F52955F70451B4083DE
:100190002115310511F420E831E0179B55C040913D
:1001A000460A40FFFCCFD092460AC9CFC09206044F
:1001B0008FCF88EC2091460A20FFFCCFD092460AD0
:1001C00081508111F7CF9CCFDF018D9181110DC03E
:1001D0008181882309F49ECFEC2FF0E0EE0FFF1F02
:1001E000EB56F04CA083B183CF5FFD0190CFDC01D3
:1001F000A757B04C4C915FEF540F5C934111ADCFBA
:10020000AC014B57504C80809180D4016C9167FDBC
:10021000A4CF762F7295769576957370713049F0EC
:10022000762F729576957770713041F46F71DA019F
:100230006C93D4011196A083B183E5CF6130C9F7E7
:100240006FCF84EE91E18CCF1092843F10923C0AE4
:1002500010923D0A17992FCF88EC9091460A90FF93
:10026000FCCFD092460A81508111F7CFF3CFFB012A
:10027000DC0102C001900D9241505040D8F7089522
:10028000DC0101C06D9341505040E0F70895F894AF
:02029000FFCF9E
:100292008E0905098308090896072907C20661061F
:1002A2000506AF055D0510054184002340999C6356
:1002B200D99B9C999C969C61D9DC999C63D99B9C07
:1002C200999C969C61D9DC929C929C929C949C6491
:1002D200D69C929CD69C999C67D9929C929C929C0B
:1002E200949CD6929C929C929C949CD6949C949C16
:1002F200949C929C61D4DCD6DCD9DCD7DCD6DCD4ED
:10030200DC002A41AC40A962ECA9ECA9A961ECA9E4
:1003120062ECA9ECA9ECA9A961ECA962ECABECAB8B
:10032200ECABAB61ECAB62ECABECABECABAB61EC72
:10033200AB62ECABECABECABAB61ECAB62ECABEC61
:10034200ABECABAB61ECAB62ECA9ECA9ECA9A9619B
:10035200ECA962ECA9ECA9ECA9A941ACA9002A413B
:10036200AC40A662ECA6ECA6A661ECA662ECA6ECFA
:10037200A6ECA6A661ECA662ECA6ECA6ECA6A6618B
:10038200ECA662ECA6ECA6ECA6A661ECA662ECA733
:10039200ECA7ECA7A761ECA762ECA7ECA7ECA7A7D8
:1003A20061ECA762ECA4ECA4ECA4A461ECA462EC62
:1003B200A4ECA4ECA4A441ACA4002B43A299A2995E
:1003C200A29962E260D961E2E19B969B969B96625A
:1003D200DB60D661DBD9979297A29792D7D2D7DB0F
:1003E200999499949994E1DB9901000014000020FA
:1003F20040969289929462D994969489439200414C
:0D0402008C8662D160C489894386010000A8
:00000001FF
