:1000000019C020C01FC028C01DC01CC01BC01AC002
:1000100019C018C017C016C015C014C013C012C034
:1000200011C010C00FC00EC00DC00CC00BC00AC064
:1000300009C008C011241FBECFEFCDBFDFE3DEBF74
:100040000CD02BC0DDCF7894E0E5F0E085E0808334
:1000500088951082F8940895189581E08093000A9D
:1000600083E48093010A8FE090E08093260A9093C6
:10007000270A85E08093400A1092410A83EF91E0BD
:1000800080934C0A90934D0A109261008CE080930B
:0E00900001048AE080931704FFCFF894FFCF9D
:00000001FF
