:1000000019C020C01FC033C01DC01CC01BC01AC0F7
:1000100019C018C017C016C015C014C013C012C034
:1000200011C010C00FC00EC00DC00CC00BC00AC064
:1000300009C008C011241FBECFEFCDBFDFE3DEBF74
:10004000F9D163C2DDCF789485E080935000889524
:10005000F89491E01799089588EC2091460A20FFC2
:10006000FCCF9093460A81508111F7CFF3CF8F9345
:1000700080E8809309048F91189520E030E090E0AB
:1000800068E071E0AC01022E02C0559547950A94D4
:10009000E2F740FF15C06093050444EC59E0E0919D
:1000A000460AE0FFFCCF7093460A415051094115C2
:1000B0005105A9F72F5F3F4F2830310519F70895F3
:1000C00060930604EACF92E08C3080F4E82FF0E0F1
:1000D000EE0FFF1FE25FFA4720813181A90102C0C4
:1000E000569547959A95E2F7CA0108958C509F5FFF
:1000F000EBCF2F923F924F925F926F927F928F92AF
:100100009F92AF92BF92CF92DF92EF92FF920F93A6
:100110001F93CF93DF93CDB7DEB7AE97CDBFDEBFD2
:100120007C01FE01399688E0DF011D928A95E9F78E
:10013000F70121918F0126952695269530E040E024
:1001400050E060E07CE782E990E09AD12DA73EA7DD
:10015000512CD8018D91882389F1F8018181811179
:1001600013C081E0850DE52DF0E0EE0FFF1F21E0CB
:1001700030E02C0F3D1FE20FF31FA08FB18F33E053
:1001800053121DC054E0552EA52CB12C4E0189E20E
:10019000880E911CA50161E070E0C401AFD1DE01C1
:1001A0005996FE01719680E0581661F02D913D91AF
:1001B0002D5F3F4F219331938F5FF6CF852D8D01BA
:1001C000582EC7CFA50160E070E0CE01859696D18C
:1001D00085013324339422242394015011090A15F4
:1001E0001B05A0F49401200F311FD9018C918111BE
:1001F000AFC00115110551F4F401212C8191282A79
:100200008E2F88198515D0F30DA51EA58F81988591
:1002100001962F8538898217930711F480E090E0CA
:100220008F839887369527958217930708F0EBC040
:100230008CA18695869590E02D813E812F5F3F4F62
:100240004D855E852417350711F420E030E02D83BD
:100250003E83569547952417350708F0D6C02BA145
:100260002695269530E0820F931F2B813C812F5FCE
:100270003F4F4B855C852417350711F420E030E0B3
:100280002B833C83569547952417350708F0BFC04C
:100290002AA12695269530E0820F931F29813A8165
:1002A0002F5F3F4F49855A852417350711F420E009
:1002B00030E029833A83569547952417350708F08F
:1002C000A8C029A12695269530E0820F931F809320
:1002D0002C0A90932D0A3A94351488F4E1E2F0E068
:1002E000EC0FFD1FE30DF11D8081982F92959695DF
:1002F0009770891B8083311002C085EF382E809162
:10030000460A80FFFCCFB1E0B093460A17998FC030
:10031000179B81C0D70111968C9182FF03C02220C8
:1003200009F438CFAE96CDBFDEBFDF91CF911F91DC
:100330000F91FF90EF90DF90CF90BF90AF909F9084
:100340008F907F906F905F904F903F902F90089587
:10035000A5E2B0E0AC0FBD1FA00FB11F8C919FEFC5
:10036000980F9C93811145CF6801CC0CDD1C66244D
:100370006394712C6C0E7D1E6C0C7D1CF301A089A6
:10038000B189CD010196808B918B4C90D9014C9213
:10039000E1E2F0E0EC0FFD1FE00FF11FBFEFB083D3
:1003A000842D8F71882361F18EDED3015896ED91F3
:1003B000FC912281229526952695237002C0969560
:1003C00087952A95E2F7A1E0B0E0AC0FBD1FAC0D18
:1003D000BD1D18968D939C9319974294469487E07F
:1003E00048224394F701E40DF11D8081E5E2F0E03D
:1003F000EC0FFD1FE00FF11F80831D921C92F9CEC0
:1004000080E090E0E0CF80E016CF20E02BCF20E02E
:1004100042CF20E059CF88EC9091460A90FFFCCF64
:10042000E1E0E093460A81508111F6CF71CF2110AF
:10043000D4CE70CF81E08093000A83E48093010AD8
:100440008FE090E08093260A9093270A85E08093BE
:10045000400A1092410A83EF91E080934C0A9093F6
:100460004D0A88ED90E084BF909361008CE080930A
:1004700001048DE0809317048FE7FFDDE4DDFCCFFE
:10048000052E97FB16F400940FD057FD05D014D01D
:1004900007FC02D046F408C0509540953095219550
:1004A0003F4F4F4F5F4F08959095809570956195A0
:1004B0007F4F8F4F9F4F0895A1E21A2EAA1BBB1B9F
:1004C000FD010DC0AA1FBB1FEE1FFF1FA217B30720
:1004D000E407F50720F0A21BB30BE40BF50B661F36
:1004E000771F881F991F1A9469F7609570958095FA
:1004F00090959B01AC01BD01CF010895DC0101C0C5
:0E0500006D9341505040E0F70895F894FFCFFE
:10050E008E0905098308090896072907C2066106A0
:08051E000506AF055D0510059F
:00000001FF
