:1000000019C028C027C027C025C024C023C022C0D3
:1000100021C020C01FC01EC01DC01CC01BC01AC0F4
:1000200019C018C017C016C015C014C013C012C024
:1000300011C010C011241FBECFEFCDBFDFE3DEBF64
:100040002FE3A0E8BFE301C01D92A63AB207E1F793
:1000500008D0E0C1D5CF8F9380E8809309048F91B9
:100060001895CF93DF93CDB7DEB76997CDBFDEBFCD
:1000700081E08093000A83E48093010A8FEF90E08F
:100080008093260A9093270A85E08093400A109275
:10009000410A83EF91E080934C0A90934D0A88EDDA
:1000A00090E084BF909361008CE0809301048DE028
:1000B0008093170428E0F22E1E0109E0200E311C67
:1000C000210180E090E023E330E0082E02C0359566
:1000D00027950A94E2F720FF00C1F092050424EC72
:1000E00039E04091460A40FFFCCF11E01093460AE8
:1000F0002150310921153105A1F70196883091056C
:1001000011F790B110B8789485E0809350008895ED
:10011000F894179BE5C090B9D101EF2D1D92EA9597
:10012000E9F79090A53F9F8AE2E3F4E81F89143035
:1001300008F4E2C09F889092A53F692C712C83013E
:10014000000F111F0D8B1E8B4D895E896DE97FE3BA
:1001500085E99FE34FD1A30160E070E081E99FE36F
:1001600052D1C30121E030E001978615970508F0D0
:1001700079C0AC01440F551FBA016B56704CDB01BE
:10018000ED91FC91E081EE2309F468C0FC01EF568B
:10019000F04CE88FF98FE081FFEFFE0FA88DB98D4D
:1001A000FC93E1115BC0FC01EB57F04C5F01DB01FC
:1001B000ED91FC91E080DE2CD294D694D694A3E00D
:1001C000DA22E7FEAEC0BD2DB170BB8B1C8A6B89F5
:1001D0007C89642B752B6757704CDB016C91A88D63
:1001E000B98D6C93AE2DAF7060E070E0AC3090F4E0
:1001F000B0E0AA0FBB1FA85EBB476E2D629563706F
:1002000073E0E72EE60E6D917C9102C076956795BE
:10021000EA94E2F7A1E0B0E0AC0FBD1FA40FB51F58
:1002200018966D937C9319971D921C92DC01AB5725
:10023000B04CAC91A2FBAA27A0F96FEF70E002C00E
:1002400075956795AA95E2F7DC01AF57B04C6C93B2
:100250004B56504C3196DA01ED93FC93009711F414
:1002600088E99AE3FE01319601E81FE3420145E87F
:10027000A42E4FE3B42EE12C4A2D65E87FE3461B04
:100280007F89471708F478C04E2D50E040933C0A10
:1002900050933D0A2150310926153705A0F4F90184
:1002A000EB57F04C408140FD09C0F901EF57F04C8D
:1002B0004081542F52955F70451B408321153105B5
:1002C00011F420E831E0179B81C04091460A40FFBD
:1002D000FCCFA1E0A093460A47CFF0920604FFCEE0
:1002E00088EC2091460A20FFFCCF21E02093460AAB
:1002F00081508111F6CF0DCFDF018D9181110FC09B
:100300008181882309F416CF0F89E02FF0E0EE0FEA
:10031000FF1FE356F04CA083B1830F5F0F8BFD01ED
:1003200005CFCE2CC294C694B7E0CB2299249394E7
:10033000D91016C00C2D0170098B1A8AC988DA8869
:10034000C42AD52AD601A757B04C6D01BE2DBF7166
:10035000EB2ED601EC923196DB01ED93FC9327CF87
:10036000B1E0CB1205C00E2D0F71E02ED501F2CFFA
:10037000B1E0EB12F0CFE8CE6F01608171816F5F69
:100380007F4F60837183D4014D915D914D0164175E
:10039000750711F4108211823296D5016D915D01BD
:1003A000669561706F5F02C0569547956A95E2F752
:1003B000D6016D917C916417750728F4D8014C9192
:1003C00046954695E40E0F5F1F4F56CFE092803F53
:1003D00010923C0A10923D0A179973CE88EC9091C6
:1003E000460A90FFFCCFB1E0B093460A81508111DC
:1003F000F6CFF2CFFB01DC0102C001900D9241501B
:100400005040D8F70895DC0101C06D934150504031
:08041000E0F70895F894FFCF16
:100418008E0905098308090896072907C206610697
:100428000506AF055D0510051404002240A6A29933
:10043800A2A462E9A4A6A49943A200419C9662E101
:0904480060D4999943960100006B
:00000001FF
