:1000000019C020C01FC030C01DC01CC01BC01AC0FA
:1000100019C018C017C016C015C014C013C012C034
:1000200011C010C00FC00EC00DC00CC00BC00AC064
:1000300009C008C011241FBECFEFCDBFDFE3DEBF74
:100040003FD066C0DDCF78948895F894179BFECF9B
:1000500088EC91E02091460A20FFFCCF9093460A5D
:1000600081508111F7CF08958F9380E88093090420
:100070008F91189520E030E090E068E071E0AC01ED
:10008000022E02C0559547950A94E2F740FF15C02D
:100090006093050444EC59E0E091460AE0FFFCCF90
:1000A0007093460A4150510941155105A9F72F5F38
:1000B0003F4F2830310519F7089560930604EACFC1
:1000C00081E08093000A83E48093010A8FE090E04E
:1000D0008093260A9093270A85E08093400A109225
:1000E000410A23EF31E020934C0A30934D0A98EDFA
:1000F00020E094BF209361009CE0909301049DE078
:10010000909317048093500089E4B4DF9CDFFCCF08
:04011000F894FFCF91
:00000001FF
