:1000000019C028C027C03AC025C024C023C022C0C0
:1000100021C020C01FC01EC01DC01CC01BC01AC0F4
:1000200019C018C017C016C015C014C013C012C024
:1000300011C010C011241FBECFEFCDBFDFE3DEBF64
:100040002FE3A0E8BFE301C01D92A63AB207E1F793
:100050001BD0D6C1D5CF8091460A80FFFCCF81E06E
:100060008093460A0895CF93179B02C0CF910895BD
:10007000CFEFF1DFC150C111FCCFF6CF8F9380E8F5
:10008000809309048F911895CF93DF93CDB7DEB796
:100090006997CDBFDEBF81E08093000A83E480933F
:1000A000010A8FEF90E08093260A9093270A85E05B
:1000B0008093400A1092410A83EF91E080934C0AAA
:1000C00090934D0A88ED90E084BF909361008CE09E
:1000D000809301048DE080931704F8E0EF2E1E0159
:1000E00029E0220E311C2D8A832C00E010E083E3EE
:1000F00090E0002E02C0959587950A94E2F780FF64
:10010000FFC0E0920504E4ECCE2EE9E0DE2EA3DF92
:1001100031E0C31AD108C114D104C9F70F5F1F4FD2
:100120000830110521F710B110B8789485E080935C
:1001300050008895F89497DF10B9D101EE2D1D92EB
:10014000EA95E9F7F090A53FEEE1F4E823E02F15FA
:1001500008F0D9C0F092A53F6F2C712CA301440F79
:10016000551F4B8B5C8B4B895C896DE97FE385E97F
:100170009FE336D1A30160E070E081E99FE339D1CC
:100180008301CC24C394D12C015011090615170505
:1001900008F07DC0C801880F991F9C012B56304C78
:1001A000D901ED91FC914081442309F46BC0D80141
:1001B000AF56B04C4C915FEF540F5C93411162C04D
:1001C000F801EB57F04CE88FF98FF9010190F081BD
:1001D000E02DEE8BFF8BB0804B2D429546954695DA
:1001E0004370B7FEA3C04170498B1A8A29893A89A6
:1001F000282B392B2757304CF90120812C93AB2D1C
:10020000AF7098012B57304CF901A08060E070E08E
:10021000AC30B0F4B0E0AA0FBB1FAC5FBB476D9130
:100220007C912B2D2295237030E041E0A3FE44E029
:1002300050E0240F351F02C0769567952A95E2F7A6
:10024000A1E0B0E0AC0FBD1FA80FB91F18966D93C9
:100250007C9319971D921C92A2FAAA24A0F82FEF62
:1002600030E002C035952795AA94E2F7D801AF5740
:10027000B04C2C938B56904CEE89FF893196DC0163
:10028000ED93FC930115110511F404EE11E1FE014B
:10029000319661E87FE3BD89BE8B8F8A45E85FE3D5
:1002A000912C842F25E83FE3821B8F1508F466C04C
:1002B0009092803F892D90E080933C0A90933D0A74
:1002C00031E0C31AD108C614D704B0F4F601EB57D5
:1002D000F04C808180FD09C0F601EF57F04C808121
:1002E000982F92959F70891B8083C114D10421F4AB
:1002F00080E8C82EDD24D394179B6CC0ACDE44CFBD
:10030000E092060400CFDF018D9181110DC0818143
:10031000882309F41FCFEF2DF0E0EE0FFF1FE35607
:10032000F04CA083B183F394FD0110CF5B2D529567
:10033000569557704130B1F450FB442440F8512C8D
:10034000A201482B592B4757504CFB2DFF71BF2E54
:10035000FA01B0824E895F894F5F5F4FF901408398
:10036000518333CF513031F44B2D4F71E88DF98DDE
:100370004083F0CFF1E0BF12EDCFF5CE5F012081D9
:1003800031812F5F3F4F20833183AE89BF898D91AB
:100390009D91AE8BBF8B2817390711F41082118203
:1003A0003296DA012D91AD01269521702F5F02C0A2
:1003B000969587952A95E2F7D5012D913C912817BE
:1003C000390728F4DB018C9186958695980E6F5F2E
:1003D0007F4F67CF10923C0A10923D0A44DE85CED3
:1003E000FB01DC0102C001900D9241505040D8F752
:1003F0000895DC0101C06D9341505040E0F708952D
:04040000F894FFCF9E
:100404008E0905098308090896072907C2066106AB
:100414000506AF055D0510054184002340999C63E2
:10042400D99B9C999C969C61D9DC999C63D99B9C93
:10043400999C969C61D9DC929C929C929C949C641D
:10044400D69C929CD69C999C67D9929C929C929C97
:10045400949CD6929C929C929C949CD6949C949CA2
:10046400949C929C61D4DCD6DCD9DCD7DCD6DCD479
:10047400DC002A41AC40A962ECA9ECA9A961ECA971
:1004840062ECA9ECA9ECA9A961ECA962ECABECAB18
:10049400ECABAB61ECAB62ECABECABECABAB61ECFF
:1004A400AB62ECABECABECABAB61ECAB62ECABECEE
:1004B400ABECABAB61ECAB62ECA9ECA9ECA9A96128
:1004C400ECA962ECA9ECA9ECA9A941ACA9002A41C8
:1004D400AC40A662ECA6ECA6A661ECA662ECA6EC87
:1004E400A6ECA6A661ECA662ECA6ECA6ECA6A66118
:1004F400ECA662ECA6ECA6ECA6A661ECA662ECA7C0
:10050400ECA7ECA7A761ECA762ECA7ECA7ECA7A764
:1005140061ECA762ECA4ECA4ECA4A461ECA462ECEE
:10052400A4ECA4ECA4A441ACA4002B43A299A299EA
:10053400A29962E260D961E2E19B969B969B9662E6
:10054400DB60D661DBD9979297A29792D7D2D7DB9B
:0C055400999499949994E1DB99010000BE
:00000001FF
