:1000000019C028C027C03AC025C024C023C022C0C0
:1000100021C020C01FC01EC01DC01CC01BC01AC0F4
:1000200019C018C017C016C015C014C013C012C024
:1000300011C010C011241FBECFEFCDBFDFE3DEBF64
:100040002FE3A0E8BFE301C01D92A63AB207E1F793
:100050001BD0D2C1D5CF8091460A80FFFCCF81E072
:100060008093460A0895CF93179B02C0CF910895BD
:10007000CFEFF1DFC150C111FCCFF6CF8F9380E8F5
:10008000809309048F911895CF93DF93CDB7DEB796
:100090006797CDBFDEBF81E08093000A93E4909321
:1000A000010A2FEF30E02093260A3093270A80932D
:1000B000400A83EF91E080934C0A90934D0A88EDBB
:1000C00090E084BF909361008CE0809301048DE008
:1000D0008093170498E0C92E1E0129E0220E311CDE
:1000E0002B8A832C00E010E083E390E0002E02C016
:1000F000959587950A94E2F780FF0CC1C09205049C
:1001000084ECE82E89E0F82EA6DF31E0E31AF1084E
:10011000E114F104C9F70F5F1F4F0830110521F7F3
:1001200010B110B8789445E0409350008895F89449
:100130009ADF10B9D101EC2D1D92EA95E9F780E024
:10014000E6E1F4E8DF019D919111E7C091819923E7
:1001500009F4E7C0DD24D394D80EE82FF0E0EE0FC9
:10016000FF1FE356F04CA083B183833009F0D6C063
:10017000D092A53F6D2C712CA301440F551F6DE942
:100180007FE385E99FE328D1A30160E070E081E986
:100190009FE32BD18301EE24E394F12C015011094C
:1001A0000615170508F07DC0C801880F991F9C012E
:1001B0002B56304CD901ED91FC914081442309F438
:1001C0006BC0D801AF56B04C4C915FEF540F5C93AD
:1001D000411162C0F801EB57F04CEE8BFF8BF90137
:1001E0000190F081E02DEC8BFD8BB0804B2D429582
:1001F000469546954370B7FE96C04170498B1A8A62
:1002000029893A89282B392B2757304CF90120812D
:100210002C93AB2DAF7098012B57304CF901A08077
:1002200060E070E0AC30B0F4B0E0AA0FBB1FA450A7
:10023000BC476D917C912B2D2295237030E041E0DD
:10024000A3FE44E050E0240F351F02C07695679569
:100250002A95E2F7A1E0B0E0AC0FBD1FA80FB91FCF
:1002600018966D937C9319971D921C92A2FAAA245A
:10027000A0F82FEF30E002C035952795AA94E2F759
:10028000D801AF57B04C2C938B56904CEC89FD891C
:100290003196DC01ED93FC930115110511F402E890
:1002A00016E0FE01319661E87FE3BB89BC8B8D8A45
:1002B00045E85FE3912C842F25E83FE3821B8D15F1
:1002C00008F45EC09092803F892D90E080933C0AB4
:1002D00090933D0A31E0E31AF108E614F704B0F414
:1002E000F701EB57F04C808180FD09C0F701EF5713
:1002F000F04C8081982F92959F70891B8083E11428
:10030000F10421F480E8E82EFF24F394179B32C017
:10031000A2DE44CFC0920604F3CED82E8D2DFD016F
:1003200011CFD82E25CF5B2D529556955770413061
:10033000B1F450FB442440F8512CA201482B592B16
:100340004757504CFB2DFF71BF2EFA01B0824C89EC
:100350005D894F5F5F4FF9014083518340CF51303A
:1003600031F44B2D4F71EE89FF894083F0CFF1E0DE
:10037000BF12EDCF10923C0A10923D0A74DEB2CE4D
:100380005F01208131812F5F3F4F20833183AC8912
:10039000BD898D919D91AC8BBD8B2817390711F4C8
:1003A000108211823296DA012D91AD0126952170CD
:1003B0002F5F02C0969587952A95E2F7D5012D917A
:1003C0003C912817390728F4DB018C918695869596
:1003D000980E6F5F7F4F6FCFFB01DC0102C0019071
:1003E0000D9241505040D8F70895DC0101C06D9343
:0C03F00041505040E0F70895F894FFCF12
:1003FC008E0905098308090896072907C2066106B4
:10040C000506AF055D051005B4000022479763D7BC
:10041C00E0D7E0E2D7E2A4E4A5E4A2E09BD96BD755
:10042C009763D7E0D7E0E2D7E2A4E4A5E4A2DBE04F
:10043C00D9DBE0ECEC459294959697999BA04BA256
:10044C00D7D7D757974B99D7D5D4929997D5D4D28C
:10045C00909795D5D4D245908B898B4B90D0D4D78F
:10046C00A0AC949777E09799D767DC4390D4974BDF
:10047C00A0DB439957979CD94399D94B9943A0DB5F
:10048C009977D7DC67D997D9974B929457909CD88A
:10049C004398D87BD84B9747977BD76BD5D5D54707
:1004AC00925B94579CD0E0DB67D75B99DC4399DB7C
:1004BC00A04BA2A09B9957979CE0439BE097D46BD1
:1004CC00E05B9BDC67D743974B999C9B9C57A0ACFC
:1004DC00E0439BE0974B94E07BDB9C67D763D79919
:1004EC009C9B9C65E0E0DAD8D6D4D3D1D0D0CAC8D6
:1004FC00C6C4C3C18063D0D4D7A0AC00284BA0AC79
:10050C00A0ACA0A0A0ACA0ACA0ACA0A0A0AC65E29C
:10051C00E4E5E6E7E9EBF0B2A7A7ACA5A5A7A5A48F
:10052C00A49999A2A2A7A7A0A0A0ACA0A0A0A0A2A9
:10053C00A29797A09B9999A2A29797A5A5A5A5A4C8
:10054C00A49999A2A29797A0A0A0ACA5A5A5A5A493
:10055C00A4A4A4A2A2A7A7A0A0A09B9999A4A4A577
:10056C00A5A5A4A2A2A6A6A7A5A4A2A0A0A0A0A44B
:10057C00A4A4ACA5ACA7ACA097A063D7D9DBA0A0D2
:10058C00A067E063E2A49BA4ACA5ACA7AC77E0E0C9
:10059C00E0E0A097A0AC002A5FBCBCBCBCBCBCBC5F
:1005AC00BCBC67FC43B0FCB0ECABECABECABECAB69
:1005BC00ECA9ECA9ECA9ECA9ECABECABECA7ECA787
:1005CC004BA0ACEC43A7ECA7ECA7ECA7ECA9ECA9CF
:1005DC00ECABECA7ECA7ECA7ECA9ECA9ECA9ECA96B
:1005EC00ECABECABECB0FCB0FCB0FCB0ECABECA707
:1005FC00ECA9ECA4ECA5ECA5ECA7ECA7ECA7ECA75C
:10060C004BA0ACEC43B0FCB0FCB0FCB0FCB0FCB00C
:10061C00FCB0ECAAECA9ECA9ECABECA7ECA7ECA712
:10062C00ECA7ECA8ECA9ECA9ECABECABFCB0FCB0E7
:10063C00FCB0FCB0FCB2FCB2FCB2FCB2ECABECAB70
:10064C00ECA9ECA8ECA7ECA7ECA7ECA7ECABECABFB
:10065C004BABACB0BCB2BCEC43A7ECA7ECA74BAC1F
:10066C00EC43A7ECA7ECA74BACEC43ABECAB4BAB24
:10067C00ACB0BCB2BC22848C848C878C8A8C908766
:10068C00808C01002457BABA6BFAFAFAFCBABAFA9F
:10069C00FAFAFC7FDCDCDCDCDCDCDCDCDCDCDC73F8
:1006AC00DC63D7D9DBA09C9CD7DCD7D7D6D4959C60
:1006BC006BDCD4D5D7999C479C63D094D7A061DAD6
:1006CC0060E0DA99439753986FE063D8E0D8974B82
:1006DC00A0D7D4D5D777D5974397999B47A061DB03
:1006EC0060E0DB9963D79561D460D5D49263D07701
:1006FC00DCDCDCDCDCDC9761D760D9D79561D560BC
:10070C00D7D59461D460D5D49261D260D4D27FD045
:02071C000000DB
:00000001FF
